:100000000C9453070C947B070C947B070C947B0790
:100010000C947B070C947B070C947B070C947B0758
:100020000C947B070C947B070C9421110C94901179
:100030000C947B070C947B070C947B070C947B0738
:100040000C947B070C947B070C947B070C947B0728
:100050000C947B070C947B070C947B070C94C213C5
:100060000C947B070C947B070C947B070C947B0708
:100070000C947B070C947B070C947B070C947B07F8
:100080000C940C140C947B070C947B070C947B074A
:100090000C947B070C947B070C947B070C947B07D8
:1000A0000C947B070C947B070C947B0700030003E4
:1000B000000100023EFFFFE68000000018FCFEFC8D
:1000C000FCFCFCFCFEFC1800000000000000013FEE
:1000D000FFFFFF7F7F7F7F7FFFFFFF3F0703000062
:1000E000000000000000000000010000000000000F
:1000F0000001000000000000000000003EFFFFE6DD
:100100008000000018FCFEFCFCFCFCFCFEFC18005F
:10011000000000000000013FFFFFFF7F7F7F7F7F27
:100120007F7F7F3F07030000000000000000000009
:1001300000010000000000000000000000000000BE
:10014000000000003EFFFFE68000000018FCFEFCFF
:10015000FCFCFCFCFEFC1800000000000000013F5D
:100160007F7F7F7F7F7F7F7FFFFFFF3F0703000051
:10017000000000000000000000000000000000007F
:100180000001000000000000000000003EFFFFE64C
:100190008000000018FCFEFCFCFCFCFCFEFC1800CF
:1001A000000000000000013FFFFFFF7F7F7F7F7F97
:1001B000FFFFFF3F070300000000000000000000F9
:1001C000000100000000000000010000000000002D
:1001D0000000000018183EC119668000000018E4F5
:1001E00002044404044402E418000000000000007B
:1001F000013EC0018141414142448404C53C0403A5
:1002000000000000000000000000000100000000ED
:1002100000000001000000000000000000003EC1DE
:1002200019668000000018E402044404044402E457
:100230001800000000000000013EC0018141414162
:1002400042444444453C0403000000000000000018
:10025000000000010000000000000000000000009D
:100260000000000000003EC119668000000018E494
:1002700002044404044402E41800000000000000EA
:10028000013E40414141414142448404C53C040394
:10029000000000000000000000000000000000005E
:1002A00000000001000000000000000000003EC14E
:1002B00019668000000018E402844404044482E4C7
:1002C0001800000000000000013EC00181414141D2
:1002D00042448404C53C0403000000000000000008
:1002E000000000010000000000000001000000000C
:1002F000000000000000B000AC003078FCFCFEFE06
:10030000FFFFFFFFFFFFFFFFFFFFFFFFFEFEFCFC05
:10031000783000000000010103030303030303031B
:100320000303030301010000000018103048848417
:1003300002020101010101010101010101010202A9
:10034000848448300000000001010202020202021F
:10035000020202020202010100000000000000008F
:100360000000000020004800200000000000000005
:100370000000000000000000000000FEFFFEFFFE85
:10038000FFFE000000000000000000000000000070
:10039000000000FFFFFFFFFFFFFFE0800000000004
:1003A00000000000000000080C060703070F1F0FE5
:1003B0000301030307060C080000000018200000DA
:1003C000000000004800000000000000480000009D
:1003D000000000000000000000000000FD00000020
:1003E00000000000FD000000000000000000000010
:1003F00000000000FF000000000000001F608000FF
:100400000000000000000008081412090804081089
:1004100020100C020404080912140808000000004F
:100420000000003E5B4F5B3E3E6B4F6B3E1C3E7CD4
:100430003E1C183C7E3C181C577D571C1C5E7F5E82
:100440001C00183C1800FFE7C3E7FF001824180041
:10045000FFE7DBE7FF30483A060E262979292640D8
:100460007F050507407F05253F5A3CE73C5A7F3E04
:100470001C1C08081C1C3E7F14227F22145F5F0096
:100480005F5F06097F017F006689956A6060606032
:100490006094A2FFA29408047E040810207E20101D
:1004A00008082A1C08081C2A08081E101010100C26
:1004B0001E0C1E0C30383E3830060E3E0E06000074
:1004C00000000000005F00000007000700147F1418
:1004D0007F14242A7F2A1223130864623649562087
:1004E000500008070300001C2241000041221C00AC
:1004F0002A1C7F1C2A08083E08080080703000086B
:1005000008080808000060600020100804023E513E
:1005100049453E00427F40007249494946214149D0
:100520004D331814127F1027454545393C4A494937
:100530003141211109073649494936464949291EA1
:100540000000140000004034000000081422411490
:1005500014141414004122140802015909063E41E2
:100560005D594E7C1211127C7F494949363E41410A
:1005700041227F4141413E7F494949417F09090963
:10058000013E414151737F0808087F00417F4100CF
:100590002040413F017F081422417F404040407F7E
:1005A000021C027F7F0408107F3E4141413E7F09CB
:1005B0000909063E4151215E7F091929462649490C
:1005C000493203017F01033F4040403F1F2040204C
:1005D0001F3F4038403F631408146303047804034A
:1005E0006159494D43007F414141020408102000F8
:1005F0004141417F04020102044040404040000369
:1006000007080020545478407F2844443838444434
:100610004428384444287F385454541800087E092C
:100620000218A4A49C787F0804047800447D40004C
:100630002040403D007F1028440000417F40007C66
:10064000047804787C080404783844444438FC185E
:1006500024241818242418FC7C0804040848545442
:10066000542404043F44243C4040207C1C2040206F
:100670001C3C4030403C44281028444C9090907CD6
:100680004464544C440008364100000077000000E8
:100690004136080002010204023C2623263C1EA12A
:1006A000A161123A4040207A385454555921555589
:1006B000794121545478412155547840205455793A
:1006C000400C1E52721239555555593954545459CB
:1006D00039555454580000457C410002457D420084
:1006E00001457C40F0292429F0F0282528F07C548D
:1006F0005545002054547C547C0A097F49324949AD
:1007000049323248484832324A4848303A41412119
:100710007A3A42402078009DA0A07D394444443973
:100720003D4040403D3C24FF2424487E4943662B05
:100730002FFC2F2BFF0929F620C0887E09032054A7
:100740005479410000447D413048484A32384040A5
:10075000227A007A0A0A727D0D19317D2629292F05
:1007600028262929292630484D402038080808081D
:1007700008080808382F10C8ACBA2F102834FA001F
:10078000007B000008142A142222142A1408950061
:10079000220095AA005500AAAA55AA55AA00000051
:1007A000FF00101010FF00141414FF001010FF00C1
:1007B000FF1010F010F0141414FC001414F700FFD4
:1007C0000000FF00FF1414F404FC141417101F1091
:1007D000101F101F1414141F00101010F000000040
:1007E000001F101010101F10101010F0100000004B
:1007F000FF101010101010101010FF10000000FF5C
:10080000140000FF00FF00001F10170000FC04F49C
:1008100014141710171414F404F40000FF00F71454
:10082000141414141414F700F714141417141010DB
:100830001F101F141414F4141010F010F000001FF7
:10084000101F0000001F14000000FC140000F01036
:10085000F01010FF10FF141414FF141010101F00DC
:10086000000000F010FFFFFFFFFFF0F0F0F0F0FFDE
:10087000FFFF0000000000FFFF0F0F0F0F0F3844B5
:100880004438447C2A2A3E147E02020606027E0276
:100890007E0263554941633844443C04407E201E37
:1008A0002006027E020299A5E7A5991C2A492A1C66
:1008B0004C7201724C304A4D4D303048784830BC53
:1008C000625A463D3E494949007E0101017E2A2A7D
:1008D0002A2A2A44445F444440514A444040444AFE
:1008E00051400000FF0103E080FF000008086B6B2F
:1008F000083612362436060F090F060000181800B5
:1009000000001010003040FF0101001F01011E0017
:10091000191D1712003C3C3C3C0000000000F0F8A0
:100920009C8E8783878E9CF8F00000FEFF030303F4
:100930000303070EFCF80000FEFF03030303030795
:100940000EFCF80000FFFF00000000000000FFFFA9
:100950000000FEFF8383838383C7EE7C380000F8AA
:10096000FC0E07030303070EFCF800003F7FE0C006
:100970008080C0E07F3FFFFF01010101010101FF15
:10098000FF0000FFFF0C0C0C0C1C3E77E3C10000C5
:100990007FFFC0C0C0C0C0E0703F1F00001F3F709D
:1009A000E0C0C0C0E0703F1F00007FFFC1C1C1C1F7
:1009B000C1E3773E1C00001F3F70E0C0C0C0E07084
:1009C0003F1F000000000001FFFF01000000D5F004
:1009D0008D14A1C881CFD9F1AF2000613C00000087
:1009E00000000000C0602010101008080808080867
:1009F0001824C404040818E80810204040300804F3
:100A00000404F418080404040202020202020608A4
:100A1000F008040202020202020608F406020202C0
:100A200006FC18080C0602020202828282C64C787A
:100A3000080808080808080818103060C0000000FE
:100A40000000000000FF000000000000001808087F
:100A5000080C0487F80000007F40404040408000C0
:100A6000000000FF8000000000000006020202C338
:100A700041611E00000006020202C341611E000027
:100A800000807F000000000000002020202161E1A4
:100A9000A31E00000C08080818183864C4070000DA
:100AA000000000000000030E3860C080808080805D
:100AB00080C07F0101071C30202020203010101F33
:100AC0001010100C04030E1830202020202020309D
:100AD0001F081810202020202020301F40C08080B8
:100AE00080808181818181C16F7840404060202079
:100AF00070598F8282848484808080C0E07B1E0055
:100B000000000000000000000000000000F828289D
:100B1000D000F02828F00008F80800F80808F000D5
:100B2000982020F800000000C020100808844484A9
:100B3000040404048444840408081020C000000055
:100B400000F80808F000F02828F000982020F800AD
:100B50000000000000000000000000000000000095
:100B60000000000000000000000000000000010084
:100B7000000100010000010001010100010000016D
:100B80000000010100000000000F080404798080CB
:100B900090A19494A190808079040408080F00002B
:100BA000000001010100000100000100000101003E
:100BB0000000000000000000000000000000000035
:100BC000000000F820F80088F888007088A8E80085
:100BD000F820F800B8A8E800F8888800F888F8003D
:100BE000F828D000F8A8880050000000000000009D
:100BF00000000000000000000000000000000000F5
:100C000000000000000000000000000000000000E4
:100C100000000000000000000000000000000000D4
:100C200000000000000000000000000000000000C4
:100C300000000000000000000000000000000000B4
:100C40007C141C007C1468007C5444005C547400C8
:100C50005C5474000078147800007C106C007C54A4
:100C600044000C700C005C0000000000000000005C
:100C70000000000000000000000000000000000074
:100C80000000000000000000000000000000000064
:100C90000000000000000000000000000000000054
:100CA0000001010101010101010101010101010135
:100CB0000101010101010101010101010101010124
:100CC000010101010101010100000000000000001C
:100CD0000000000000000000000000000000000014
:100CE00000000000001003C800A403C8004B02C8A5
:100CF000006E02C8001003C800A403C8004B02C85D
:100D0000006E02C8001003C800A403C8004B02C84C
:100D1000006E02C8001003C800A403C8004B02C83C
:100D2000006E02C800BA02C8003F03C8000B02C828
:100D3000002A02C800BA02C8003F03C8000B02C85C
:100D4000002A02C800BA02C8003F03C8000B02C84C
:100D5000002A02C800BA02C8003F03C8000B02C83C
:100D6000002A02C8001704C800A403C8006E02C805
:100D700000BA02C8003F03C8001003C8006E02C8D2
:100D8000000B02C8001704C800A403C8006E02C804
:100D900000BA02C8003F03C8001003C8006E02C8B2
:100DA000000B02C8001704C800A403C8006E02C8E4
:100DB00000BA02C8003F03C8001003C8006E02C892
:100DC000000B02C8003F03C8001003C8000B02C894
:100DD000006E02C8003F03C8001003C800A403C887
:100DE00000BA02C8003F03C8001003C8000B02C8C5
:100DF000006E02C8003F03C8001003C800A403C867
:100E000000BA02C8003F03C8001003C8000B02C8A4
:100E1000006E02C8003F03C8001003C800A403C846
:100E200000BA02C800018053636F72653A00080B74
:100E30000002020200000904000001020200000595
:100E400024001001052401010104240206052406E2
:100E500000010705810310004009040100020A0097
:100E60000000070502024000000705830240000061
:100E70000403090412010002EF02014041233680FD
:100E800000010102030141726475696E6F204C4CD0
:100E9000430041726475696E6F204C656F6E6172BC
:100EA000646F0000E51411241FBECFEFDAE0DEBF4F
:100EB000CDBF11E0A0E0B1E0E4E8F8E302C00590A6
:100EC0000D92AC37B107D9F726E0ACE7B1E001C02D
:100ED0001D92AE39B207E1F717E0C3E5D7E004C0D1
:100EE0002197FE010E94351CC235D107C9F70E9427
:100EF0002B150C94401C0C94000080918A010895DD
:100F000090919106982329F490919006982381E07E
:100F100009F480E00895CF93DF938091E6058F5F19
:100F20006AE00E94291C9093E605C4EBD5E0898510
:100F3000882379F0E881E33060F4F0E0EE0FFF1FE2
:100F4000E05BFE4F0190F081E02D64EB75E0CE0197
:100F500009952A9685E0C63ED80749F7DF91CF91DB
:100F60000895AF92BF92DF92EF92FF920F931F937B
:100F7000CF93DF93CDB7DEB764970FB6F894DEBF9B
:100F80000FBECDBF8E01055F1F4FA4EBB5E0CE01B4
:100F900001965C01B80190E080E0A501E12CFF24FE
:100FA000FA94FB0181939193BF0119962C911997A3
:100FB000222309F478C01896DC90189715962D9185
:100FC0003C9116972D0D311DD7FC3A95F5013183D3
:100FD000208301961A96F2E0AF0EB11C8530910580
:100FE00001F781E0982FE92FF0E0DF011197AA0FB8
:100FF000BB1FA40FB51F6D917C911197EE0FFF1FC2
:10100000E40FF51F20813181261737079CF42285D4
:1010100033851A96ED90FC901B97F386E286332772
:101020001B963C932E931A97718360832D933C9368
:101030009150C9F68F5F8530A9F678012AE0E20E5B
:10104000F11C3AE0D32ED8012D913D918D01D29E15
:10105000C001D39E900D11248C549A4FFC01218520
:10106000222371F0E081E33058F4F0E0EE0FFF1F2F
:10107000E65BFE4F0190F081E02D64EB75E0099591
:101080000E151F0501F764960FB6F894DEBF0FBE6C
:10109000CDBFDF91CF911F910F91FF90EF90DF9027
:1010A000BF90AF900895F501F182E08292CFE4EB1A
:1010B000F1E0A0E0B8E000800EBC8111012C119796
:1010C000A0FDFDCF0192B9F70DB40895FC01809108
:1010D000B301882311F13FB7F89482E08093E900CF
:1010E0002091F200822F90E01816190614F481E086
:1010F00090E0882339F0289844E64093B20140916B
:10110000F1004083222339F02091F200211103C025
:101110002BE62093E8003FBF08958FEF9FEF0895DF
:101120002FB7F89483E08093E9009091E800892F2D
:10113000807295FF04C09091F20080E4891B2FBF5C
:1011400008958091AA0181110DC082E08093A601CB
:1011500084E08093A7011092A9011092A80181E078
:101160008093AA0186EA91E00895CF93DF931F92BE
:10117000CDB7DEB76983DC01ED91FC910280F3818C
:10118000E02D41E050E0BE016F5F7F4F09950F9069
:10119000DF91CF91089583E08093E9008091F20080
:1011A000882319F08AE38093E80008950E9490084C
:1011B00090E00895CF93DF931F92CDB7DEB7FC0187
:1011C0008485958597FD08C02FEF3FEF35872487ED
:1011D0000F90DF91CF910895CE0101960E9466088D
:1011E000019719F4898190E0F3CF8FEF9FEFF0CF53
:1011F0000F931F93CF93DF931F92CDB7DEB78C0170
:10120000FC018485958597FF0BC0CE0101960E9455
:101210006608019771F4898190E0F80195878487C9
:10122000F801848595850F90DF91CF911F910F91E3
:1012300008958FEF9FEFF1CFFC018485958597FD91
:101240000BC09FB7F89482E08093E9008091F20090
:101250009FBF90E0019608959FB7F89482E0809335
:10126000E9008091F2009FBF90E008954091A001B5
:101270005091A10120919E0130919F014217530787
:10128000B4F49091E8009570E1F39091E80092FD3C
:1012900019C08093F1008091A0019091A101019665
:1012A0008F739927892B19F48EEF8093E800809132
:1012B000A0019091A10101969093A1018093A001BA
:1012C00081E0089580E00895DF92EF92FF920F93FE
:1012D0001F93CF93DF93D82E8A01EB017B01E40E9D
:1012E000F51ECE15DF0559F0D7FE12C0FE01849120
:1012F0000E94360921968111F4CF0FEF1FEFC8012C
:10130000DF91CF911F910F91FF90EF90DF900895A3
:101310008881EECF0F931F93CF93DF931F92CDB7AA
:10132000DEB782E0898342E450E06EE27EE080E84E
:101330000E9464090E94A108DC0112960D911C9183
:101340000115110589F0D801ED91FC910280F3811E
:10135000E02DBE016F5F7F4FC801099597FD04C066
:10136000F80100851185ECCF89810F90DF91CF9135
:101370001F910F910895615030F02091F100FC0110
:1013800020830196F8CF289884E68093B2010895CF
:10139000AF92BF92CF92DF92EF92FF920F931F9383
:1013A000CF93DF936C017B018B01040F151FEB01C1
:1013B0005E01AE18BF08C017D10759F06991D60178
:1013C000ED91FC910190F081E02DC6010995892BEA
:1013D00079F7C501DF91CF911F910F91FF90EF90A9
:1013E000DF90CF90BF90AF9008953FB7F894809171
:1013F000860190918701A0918801B091890126B55D
:10140000A89B05C02F3F19F00196A11DB11D3FBF3C
:10141000BA2FA92F982F8827BC01CD01620F711D0B
:10142000811D911D42E0660F771F881F991F4A9505
:10143000D1F708958F929F92AF92BF92CF92DF9291
:10144000EF92FF926B017C010E94F5094B015C0158
:10145000C114D104E104F104B9F00E94F50968193E
:1014600079098A099B09683E73408105910580F3DB
:1014700021E0C21AD108E108F10888EE880E83E065
:10148000981EA11CB11CE4CFFF90EF90DF90CF908D
:10149000BF90AF909F908F9008958F929F92AF9240
:1014A000BF92CF92DF92EF92FF920F931F93CF9351
:1014B000DF936C017B018A0180910C01882309F480
:1014C0005CC08091B301882309F457C08091A501C5
:1014D00080FF05C08091E00082608093E000E80119
:1014E000B12C8AEFA82E93E0892E2AE3922E209722
:1014F00011F4BB20D9F10E94900881110AC0AA946E
:10150000AA20D9F161E070E080E090E00E941A0A20
:10151000EECF8C171D0611F00CF08C2F9FB7F894AE
:101520008092E9002091E80025FD02C09FBFDFCF37
:10153000282F30E0C21BD30BF701815020F04191DE
:101540004093F100FACFE20EF31EBB2021F09092FF
:10155000E800B12CEBCF8091E80085FDE7CF9092B9
:10156000E800BB24B394209709F3F3CF5D9884E699
:101570008093A401101611063CF081E090E0F60182
:101580009383828310E000E0C801DF91CF911F9127
:101590000F91FF90EF90DF90CF90BF90AF909F9012
:1015A0008F90089520919301E0919101F091920123
:1015B000CF0102969093920180939101222319F01A
:1015C000859194910895808191810895E1E7F0E0FB
:1015D00080818D7F80831092910046984798109269
:1015E0007E010895CF92DF92EF92FF92CF93DF9327
:1015F0000E94D20A811520E8920741F4DF91CF9131
:10160000FF90EF90DF90CF900C94E60A21E02093BA
:101610007E01813020E8920751F480918F019091F2
:10162000900190939201809391010E94D20A97FDBC
:1016300005C020917D01222309F45BC020917C012B
:10164000211157C021E020937F01EC01DF77209723
:1016500009F052C081E08093800146983FE9C32E93
:101660003FE0D32EE12CF12CCAEFD0E0E09145060B
:10167000F09146060995811103C081E080938001B5
:1016800080917F01882329F080918001882309F4CB
:1016900046C047980E94D20A009709F444C09C01B2
:1016A000DE010E941A1CDC01CB0129E0B595A7954B
:1016B000979587952A95D1F7109290002AE020936C
:1016C0009100D0929900C0929800809381019093EC
:1016D0008201A0938301B0938401809171008260A4
:1016E00080937100DF91CF91FF90EF90DF90CF90CA
:1016F000089510927F01A9CF9E0150E040E060E480
:1017000072E48FE090E00E94C61B69017A0181E0DB
:10171000C81AD108E108F10810928001A7CF4699B4
:10172000B8CF479AB7CF8FEF9FEFDC01C5CF4F926D
:101730005F926F927F928F929F92AF92BF92CF9261
:10174000DF92EF92FF920F931F93CF93DF934C01A1
:101750005901FC2DC02FD0E0CE01880D991D18161F
:1017600019060CF06CC020E8821691040CF067C0DA
:101770009B012E0D311D121613060CF060C0603453
:1017800071050CF05CC04115510509F458C0E62FF5
:10179000E770FE2EDB0177FD179633E0B595A79530
:1017A0003A95E1F73A2F77FF04C0FF2011F03FEFA1
:1017B0003A0F662777276819790997FC02C070E00D
:1017C00060E0803891050CF44BC090E89819961BA6
:1017D000A32F032E000CBB0B1A2F10953F3F0CF0CC
:1017E00010E021E08E2D877009F420E0E694E69465
:1017F000E694E20EAE0DB11D19971CF028E0E22E22
:10180000E31AE11A310F20E83203D0011124A80DA8
:10181000B91DA60FB71F019F600D711D1124460F42
:10182000571F0F2D0F2C000C110BF33009F41CC1A6
:10183000C8F4F13009F4D0C0F23009F47CC0DF9173
:10184000CF911F910F91FF90EF90DF90CF90BF90BD
:10185000AF909F908F907F906F905F904F90089582
:10186000902FB5CFFA3FB1F1232F2E0DFB3F39F763
:10187000321729F3BD016C547E4FD12CC12CC916EF
:1018800008F0A4C0FA01EC0DFD1DE491F0E04F0159
:10189000002E02C0880C991C0A94E2F737FD06C09E
:1018A000FB018081E82CE0948E218083FF2061F091
:1018B000373054F45B01F0E8AF0EB11CE92CE09432
:1018C000F50180818E218083FFEFCF1ADF0A6F5FE1
:1018D0007F4FD5CF232F2E0D321709F4B0CFBD0186
:1018E0006C547E4FD12CC12CC91608F069C0FA0186
:1018F000EC0DFD1DE491F0E04F01002E02C0880CBC
:10190000991C0A94E2F737FD04C0FB018081882905
:101910008083FF2051F0373044F45B01F0E8AF0ED4
:10192000B11CF501808189298083FFEFCF1ADF0A7E
:101930006F5F7F4FD9CF6FEF70E00F2C02C0660F43
:10194000771F0A94E2F760957095772E232F2E0D5E
:10195000321709F474CFFD01EC54FE4F6F01B12C26
:10196000A12CA91638F5FA01EA0DFB1DE491F0E06F
:101970002F01002E02C0440C551C0A94E2F737FDDB
:1019800005C0F6018081862384298083FF2059F0D9
:1019900037304CF44601F0E88F0E911CF401808141
:1019A000872185298083FFEFAF1ABF0A8FEFC81AFE
:1019B000D80AD7CF3F5F4C0F5D1FA058BF4FC8CF8D
:1019C0003F5F4C0F5D1FA058BF4F86CF3F5F4C0F4E
:1019D0005D1FA058BF4F4CCF6A0D7B1D232F2E0DCE
:1019E000321709F42CCFFD01EC54FE4F6F01B12CDE
:1019F000A12CA91688F5FB01EA0DFB1D8490912C02
:101A0000002E02C0880C991C0A94E2F780949094EE
:101A1000FA01EA0DFB1D6490712C002E02C0660CC9
:101A2000771C0A94E2F737FD05C0F6018081882112
:101A300086298083FF2049F037303CF4F601E058D6
:101A4000FF4F8081892187298083FFEFAF1ABF0A6A
:101A50008FEFC81AD80ACDCF3F5F4C0F5D1F6C0FB8
:101A60007D1FA058BF4FBCCFC92ED12CFA01E60F65
:101A7000F71FAC54BE4F00E810E00C191D09CC193B
:101A8000DD09BE01660F771F41E050E06A010F2CAF
:101A900001C0CC0C0A94EAF7592F2E2D792ECF9342
:101AA000DF93ED01EF96EF9622968590A590FF20AB
:101AB00059F08C9C4001AC9C500137302CF4E880EC
:101AC000B094EB20E928E99233233AF0EC90A0940B
:101AD000EA20E828ED920C946E0D11965A9529F79C
:101AE0002A9551F0572D33951124E60FF11DA00FC3
:101AF000B11DC00FD11DD9CFDF91CF9111249FCE41
:101B00002D9A0895BC0190E080E00C941A0A8FB1E0
:101B10008095807F669B88601C9B8460089520E18F
:101B200091E061FD94E060FD990F62FD9295687F00
:101B3000269FD0011124A80FAC54BE4F8C9140FFBA
:101B400003C0892B8C93089590958923FBCFCF9365
:101B5000DF93C7E4D6E08985882361F08C8187FD17
:101B600009C06D8170E06034710524F441E090E0BB
:101B70000E948F0D269686E0C338D80761F7DF9163
:101B8000CF9108952F923F924F925F926F927F92E2
:101B90008F929F92AF92BF92CF92DF92EF92FF927D
:101BA0000F931F93CF93DF93CDB7DEB728970FB670
:101BB000F894DEBF0FBECDBF9E838D836A3061F582
:101BC000DC0155968C91B8E08B9F90011124ED813A
:101BD000FE8181899289820F931F928B818B108A5B
:101BE000178681E090E028960FB6F894DEBF0FBE0E
:101BF000CDBFDF91CF911F910F91FF90EF90DF90BC
:101C0000CF90BF90AF909F908F907F906F905F909C
:101C10004F903F902F9008956D3019F32D813E81A4
:101C200038872F83D9011F960D911C91509700384A
:101C300011050CF07CC05196AD90BC90B0E4AB1691
:101C4000B1040CF074C0F901258825E0C801229E7A
:101C5000800D911D1124181619060CF068C0622C15
:101C6000712CC30133E0880F991F3A95E1F78A0D73
:101C70009B1D181619060CF05AC0F489FB83AF811E
:101C8000B8855396BC91BC83629FB0011124FB01BF
:101C9000E25EFB4F2F011982F2018491F981F53048
:101CA00009F480E0450128E02A83A82FB0E0BE8334
:101CB000AD833C8080FF3B80311004C0BB81EC8150
:101CC000BE17F9F078018E2D801B8215D0F4D12C2F
:101CD000C12CC21490F4F0E8EF16F10450F4B601F0
:101CE000680D791D6034710520F4432DC7010E94F1
:101CF0008F0D2FEFC21AD20AECCF3FEFE31AF30A8F
:101D0000E2CF8D819E81959587959A8191509A8396
:101D1000860C971C9111C9CFA981AF5FA983BFEF32
:101D20004B1A5B0A060D171DA63009F0B5CFEF81DF
:101D3000F8852589422F50E087859089F6E02F9F0E
:101D4000800D911D1124AF81B88550969C938E9380
:101D50001F9756962C915697222309F442CF6AEF8B
:101D600064039001659F300D112420583F4F2817C0
:101D700039070CF036CFED91FC9111970190F0816D
:101D8000E02D6AE0CD0109952CCF0895089590E0EB
:101D900080E00895EF92FF920F931F93CF93DF930C
:101DA000CDB7DEB72A970FB6F894DEBF0FBECDBF12
:101DB000E982FA820B831C832D833E834F835887ED
:101DC00069877A87FC0130E020E04185411129C014
:101DD0004AE0429FF001439FF00D1124E80FF91FE4
:101DE0008C819D81948383838E819F81968385835B
:101DF0008A8181838B81828389818083888587839F
:101E00008985808781E081872A960FB6F894DEBFA6
:101E10000FBECDBFDF91CF911F910F91FF90EF903B
:101E200008952F5F3F4F3A962530310571F680E0D7
:101E3000EBCFCF92EF920F93ECEBF3E00491EDEB4D
:101E4000F3E0E490FC0165817681CC24C3942CE519
:101E500033E04EEB53E0838194810E94970B0F9106
:101E6000EF90CF900895CF92EF920F93EAE2F3E0D4
:101E70000491EBE2F3E0E490FC0165817681CC24EF
:101E8000C3942AEF32E04CE253E0838194810E94B4
:101E9000970B0F91EF90CF900895CF92EF920F9301
:101EA000CF93DF93EC01AB81BC816D817E81E981B1
:101EB000F0E0EE0FFF1FEA50FD4F9491EA81E90F29
:101EC000FF27FF1F8491E4EDF1E00491E5EDF1E0DF
:101ED000E49024EB30E046ED51E08823E9F041E066
:101EE00050E09E2D977011F450E040E02E2D269585
:101EF00026952695240F352F311D029FF001039F53
:101F0000F00D11248E9FA0018F9F500D11249A0176
:101F10002C543F4F4A525E4FCC24C394CD010E94B3
:101F2000970BDF91CF910F91EF90CF900895DC0147
:101F3000FB0111968C911197811133C080910001A2
:101F400013962D913C911497281B310914963C93BC
:101F50002E931397283E8FEF38071CF419961C9286
:101F6000199715968D919C910A974581568148172E
:101F70005907B9F4265031092A30310590F481E02F
:101F80008183CF01C29621E03185311121833A96B8
:101F9000E817F907C9F783E090E090939D018093DB
:101FA0009C0108950F931F93CF93DF93EC018B0156
:101FB00080E80E948007882341F08D819E818B30CC
:101FC00091051CF009979E838D8380E10E94800714
:101FD000882341F08D819E81853291051CF40996FC
:101FE0009E838D8388E00E948007882311F081E022
:101FF000898384E00E948007882339F0198281E078
:1020000090E090939D0180939C01F80182A9893012
:1020100021F48A818F5F83708A83DF91CF911F9132
:102020000F9108958F929F92AF92BF920F931F933B
:10203000CF93DF93CDB7DEB7A1970FB6F894DEBF8D
:102040000FBECDBF19A2423008F44AE08E010F5DE9
:102050001F4F842E912CB12CA12CA50194010E941C
:10206000F81BE62FB901CA01EA3044F5E05DD8015A
:10207000EE938D01232B242B252B79F790E080E024
:10208000109769F0FD0101900020E9F73197AF0149
:102090004A1B5B0BBD0187E896E00E94C809A19628
:1020A0000FB6F894DEBF0FBECDBFDF91CF911F9169
:1020B0000F91BF90AF909F908F900895E95CD7CF1C
:1020C0000C94B01B0E943B1CCF92DF92EF92FF92C8
:1020D0006B017C01C114D104E104F10441F00E94C0
:1020E000581BA70196010E94C61B6B017C01C7010A
:1020F000B601FF90EF90DF90CF900895CF92DF92DE
:10210000EF92FF920F931F93CF93DF93CDB7DEB77C
:1021100064970FB6F894DEBF0FBECDBFFC0181817E
:1021200081112BC02091000183819481821B910930
:1021300094838383883E9F4F04F56B01118662E090
:1021400070E080E090E00E9464108AE0611124C099
:10215000E1E1F1E0DE01119601900D928A95E1F73F
:10216000E980FA800B811C812D813E814F81588549
:1021700069857A85C6010E94CA0E64960FB6F894E6
:10218000DEBF0FBECDBFDF91CF911F910F91FF90AA
:10219000EF90DF90CF900895EBE1F1E0DE011B9628
:1021A00001900D928A95E1F7EB84FC840D851E85E4
:1021B0002F85388949895A896B897C89DBCFFF92C1
:1021C0000F931F93CF93DF93EC01F62E08811981B3
:1021D000C8010E94B01BF81621F06F2DC8010E94A3
:1021E000B81BCE01DF91CF911F910F91FF90089501
:1021F000CF92DF92EF92FF920F931F93CF93DF93D3
:1022000000D0CDB7DEB76C017C0103E110E01A838A
:102210000983F70161917F01CE0101960E94DF10D1
:102220000F5F1F4F0731110591F7C6010F900F90F7
:10223000DF91CF911F910F91FF90EF90DF90CF90A2
:1022400008951F920F920FB60F9211248F939F93B0
:102250008091E1009091E100937F9093E10083FFF2
:102260000FC01092E90091E09093EB001092EC0007
:1022700092E39093ED001092B30198E09093F000F8
:1022800082FF22C093E09093E9009091F20099239D
:1022900019F09AE39093E8009091A401992341F0FA
:1022A0009091A40191509093A401911101C05D9A65
:1022B0009091B201992341F09091B2019150909385
:1022C000B201911101C0289A84FF18C08091E200E8
:1022D0008E7E81608093E2008091E1008F7E80930A
:1022E000E1008091A5018E7E80618093A5019F9180
:1022F0008F910F900FBE0F901F90189580FFF7CF12
:102300008091E2008E7E80618093E2008091E10006
:102310008E7E8093E1008091A5018E7E8160E5CF65
:102320001F920F920FB60F921124CF92DF92EF926D
:10233000FF920F931F932F933F934F935F936F934E
:102340007F938F939F93AF93BF93EF93FF93CF931D
:10235000DF93CDB7DEB76C97DEBFCDBF1092E9003B
:102360008091E80083FF25C068E0CE0145960E9479
:10237000BB0982EF8093E8008D8987FF39C0909177
:10238000E80090FFFCCF982F907609F034C19E8929
:102390004F89588D2F89F88C911131C0803861F5A3
:1023A0008091A3018093F1001092F1008EEF809351
:1023B000E8006C960FB6F894DEBF0FBECDBFDF917C
:1023C000CF91FF91EF91BF91AF919F918F917F91AD
:1023D0006F915F914F913F912F911F910F91FF90BE
:1023E000EF90DF90CF900F900FBE0F901F90189539
:1023F0009EEF9093E800C7CF1092F100D5CF9130B7
:1024000059F48111D3CF4130510581F68091A30158
:102410008D7F8093A301CACF933049F48111C6CF39
:102420004130510519F68091A3018260F2CF9530B9
:1024300041F48091E80080FFFCCF20682093E30006
:10244000B5CF963009F0A9C00B8D1C8D22E01092FB
:10245000E9001092A1011092A001F2122EC0109278
:102460009F0110929E010E948A091F8299E0998320
:10247000FA8291E09E8390EA98879AEF998720915B
:10248000A0013091A101275F3F4F3C832B838D83B7
:102490001092E9001092A1011092A00110939F01E7
:1024A00000939E0149E050E0BE016F5F7F4F80E0E6
:1024B0000E9464090E948A0979CF10939F010093BA
:1024C0009E010E94A108DC0112960D911C9101153C
:1024D000110509F451C1D801ED91FC910480F581F9
:1024E000E02DBE016B5E7F4FC8010995009709F092
:1024F0003EC1F80100851185EACFF3E0FF120EC05E
:102500008F89882309F440C0823061F440E860E19B
:1025100082E99EE00E946D14811148CF81E2809390
:10252000EB0047CF813029F440E86BE086E89EE07D
:10253000F1CF833099F70E94A108DC011296ED904B
:10254000FC908E010F5F1F4F6801E114F10479F0D8
:10255000D701ED91FC910680F781E02DB801C7010C
:102560000995080F111DF701E084F184EECFD80121
:102570001C92F60101900020E9F73197BF016C1918
:102580007D0940E0C601C6CF60E77EE0FB014491D3
:1025900050E080E80E94640909CF973009F4BECF6B
:1025A000983021F481E08093F10000CF993009F058
:1025B000FDCE837009F0B2CFE4E4F1E081E031E0D8
:1025C00096E32191222371F08093E9003093EB0090
:1025D000DF0111972C912093EC009093ED008F5F19
:1025E000873079F78EE78093EA001092EA008F89AE
:1025F0008093B301DBCE8B8D9C8D1092E9001092FD
:10260000A1011092A00190939F0180939E01898D5A
:10261000811192C08E899D89913A49F4813209F0E5
:102620007DCF47E050E065E071E080E0B3CF9132CC
:1026300009F074CF833269F48F89988DB0E0A0E0FF
:102640008093010190930201A0930301B0930401D0
:10265000ADCE803269F48091E80082FFFCCF67E064
:1026600085E091E00E94BB098BEF8093E8009ECE4D
:10267000823209F09BCE8F8980930C01EEEFFFE749
:10268000859194918B3F9C4D51F1E0E0F8E0809171
:10269000050190910601A0910701B0910801803BCE
:1026A0009440A105B105F1F480910C0180FD1AC0A0
:1026B000EE3F8AE0F80789F587E797E79183808303
:1026C000809160008093A20188E19BE00FB6F894AE
:1026D000A895809360000FBE9093600067CEEEEFE8
:1026E000FAE0D5CF808191818737974709F05ECE98
:1026F000A895809160008861809360008091A2011C
:1027000080936000EE3F2AE0F20789F08091FE0A94
:102710009091FF0A9183808349CE80819181873790
:10272000980751F29093FF0A8093FE0AC5CF10924A
:10273000FF0A1092FE0A3ACE0E94A108DC0112960E
:102740000D911C910115110509F4E8CED801ED9108
:10275000FC910190F081E02DBE016B5E7F4FC801BE
:102760000995811123CEF80100851185EBCF18164C
:1027700019060CF41BCED2CEF1E0FF12BECE64E7F8
:102780007EE004CF1F920F920FB60F9211242F9369
:102790003F938F939F93AF93BF9380918B019091C1
:1027A0008C01A0918D01B0918E013091850123E0C3
:1027B000230F2D3758F50196A11DB11D20938501DA
:1027C00080938B0190938C01A0938D01B0938E0127
:1027D0008091860190918701A0918801B091890133
:1027E0000196A11DB11D8093860190938701A0934E
:1027F0008801B0938901BF91AF919F918F913F91D3
:102800002F910F900FBE0F901F90189526E8230F61
:102810000296A11DB11DD2CF1F920F920FB60F923B
:1028200011242F933F934F935F936F937F938F93D5
:102830009F93AF93BF93EF93FF938091810190910A
:102840008201A0918301B0918401892B8A2B8B2B6B
:1028500009F440C08091800181110BC088B190E4DF
:10286000892788B980917F01882319F088B1805821
:1028700088B98091810190918201A0918301B091EA
:102880008401181619061A061B069CF48091810112
:1028900090918201A0918301B09184010197A109D7
:1028A000B1098093810190938201A0938301B09339
:1028B0008401FF91EF91BF91AF919F918F917F9193
:1028C0006F915F914F913F912F910F900FBE0F909D
:1028D0001F9018950E94F20AECCFEF92FF920F938F
:1028E0001F93CF93DF93F82E192FE62E042F81E04C
:1028F000860F880F0E94360983E00E943609CF2D8B
:10290000D12FEC0EFD2EF11CCE15DF05B9F007FF1F
:1029100013C0FE0184910E943609182F80E00E94A6
:102920003609812321968111EFCFDF91CF911F913D
:102930000F91FF90EF9008958881EDCF81E0F5CF62
:102940000F931F93CF93DF938C0181E090E00E945F
:10295000601080FF32C08AE090E00E9460109FEF1C
:10296000980F9E3F50F522E330E0D80150963C93FB
:102970002E931F9728E330E052963C932E93519765
:10298000CBE0D0E0D801ED91FC910190F081E02DF9
:10299000682FC8010995CE010E9460102196C131AF
:1029A000D10581F780E00E94570888EE93E0DF911F
:1029B000CF911F910F910C94820DDF91CF911F91B8
:1029C0000F91089504970C94A014E7EEF5E013829C
:1029D000128288EE93E0A0E0B0E084839583A68322
:1029E000B7838AE591E0918380838FEF9FEF95878E
:1029F0008487E7E8F6E0138212821186128680E16E
:102A000083871086178215868CE691E091838083F8
:102A10008AE791E095838483108A1786128A118A47
:102A200081E0838B148A858B168A8DE797E09093DB
:102A300046068093450680E090E890934406809394
:102A4000430646983E9A47983F9AE7E4F6E010829C
:102A5000118212820895CF93DF93CDB7DEB7CE55A2
:102A6000D1090FB6F894DEBF0FBECDBF789484B500
:102A7000826084BD84B5816084BD85B5826085BD7A
:102A800085B5816085BD80916E00816080936E0008
:102A900010928100809181008260809381008091FA
:102AA00081008160809381008091800081608093AB
:102AB00080008091910082608093910080919100CC
:102AC000816080939100809190008160809390005C
:102AD0008091C10084608093C1008091C1008260B8
:102AE0008093C1008091C10081608093C10080917A
:102AF000C30081608093C3008091C0008260809396
:102B0000C0008091C20081608093C20080917A00F1
:102B1000846080937A0080917A00826080937A004A
:102B200080917A00816080937A0080917A00806839
:102B300080937A001092B3011092A3011092A50124
:102B40008091D70081608093D70080EA8093D8007D
:102B500089B5806189BD89B5826089BD09B400FEEF
:102B6000FDCF61E070E080E090E00E941A0A809161
:102B7000D8008F7C80618093D8008091E000807FB6
:102B80008093E0008091E1008E7E8093E1008DE0F3
:102B90008093E200559A209A81EC80937C0085B165
:102BA000806F85B984B1877E84B984B1876E84B91A
:102BB0005E9A5F988AB1806D8AB9769A6E9881B371
:102BC000806F81BB899880B38D7080BB80E58CBDA0
:102BD00081E08DBD85E090E00E94820D5F9A85E0E6
:102BE00090E00E94820D5E985C98EEECF9E0849192
:102BF0008EBD00000DB407FEFDCF319629E0EB3D00
:102C0000F207A9F75C9A81E88093640080916500DF
:102C100081608093650080E00E9457080E94870DC4
:102C200002E010E087FF15C05C9885EA8EBD0000C9
:102C30000DB407FEFDCF5C9A2E982F982D988091A9
:102C4000640080628093640081E083BF889513BE36
:102C5000FCCF0E94870D82FF40C02D980E94870DF7
:102C600084788438C1F40E94800D88EC90E00E9442
:102C7000820D2F981A8309836FEFCE0101960E946F
:102C8000DF1084EF91E00E94820D2F9A0E94870D41
:102C900084788438D9F30E94870D84718431C1F41B
:102CA0000E94800D88EC90E00E94820D2E981A837D
:102CB000098360E0CE0101960E94DF1084EF91E06D
:102CC0000E94820D2E9A0E94870D84718431D9F35F
:102CD00088EC90E00E94820DBCCF0E94800D82E0C3
:102CE00090E00E946010882309F450C03E9A3F9AF9
:102CF00081E080938A0181E090E00E946010482F7B
:102D00004470742E81FF11C041112E9801EF1FEF06
:102D100088E0E82EF12C98E5692E0E94870D86FF49
:102D20003AC02E9A2F9A0E94800D82E390E00E9472
:102D3000820D0E94870D8111F8CFF4E12F2E312CE6
:102D4000412C512CE4EB8E2EE1E09E2E8FB7F894AF
:102D500040918B0150918C0160918D0170918E0199
:102D60008FBF80919306F42FF81B8F2F90919406BC
:102D7000992309F4A7C0F09395061092940680E079
:102D800090E0892B19F30E940000DCCF10928A0199
:102D90003E983F98B0CF772029F00430110511F408
:102DA0002E9A2F9881E00E945708980117FF04C0BF
:102DB00022273327201B310B27703327C80117FD2B
:102DC0000796B3E095958795BA95E1F717FF05C08B
:102DD0000197F701E21BF30B9F01BC017695762F5B
:102DE0006627779567956C547E4FB0E0A0E0270189
:102DF000421A530A8E3FFFEF9F0709F43FC06A9EB5
:102E000050016B9EB00C112450E040E0F501E25EF1
:102E1000F64F5F014B01F0E88F0E911C8F3F980732
:102E200091F0F501E40FF51FE4916B01C40ED51E7E
:102E3000F0E01F01022E01C0220C0A94EAF7F6010D
:102E400034882328248A2115310599F0F501E40FEF
:102E5000F51FE4916401C40ED51EF0E01F01042C9F
:102E600002C0359427940A94E2F7F60134882328A7
:102E7000248A4F5F5F4F4835510581F601966058AF
:102E80007F4F1197E1F480E00E9457088FE090E0B7
:102E90000E94820D0F5F1F4F0931110509F03DCFD0
:102EA000772011F02F9A2D9880E991E00E94820DF1
:102EB0000E94800D87E896E00E94A01436CFA1E022
:102EC000B0E098CF90919206F91748F48F5F891778
:102ED00008F055CF81E083BF889513BE50CF81E0C5
:102EE000809394064093930620918E0630918F062E
:102EF0002F5F3F4F30938F0620938E06809195066B
:102F0000981708F05EC05D988091900680939106B6
:102F10000E94870D8093900680E0F40181118FEF6D
:102F2000002481938193819381930394D1F710922C
:102F30009906109298061092970610929606809124
:102F40009C0190919D018230910509F48FC00CF095
:102F500066C20097C1F1019709F06BC00E94E60AB2
:102F6000EBEDF9E00491ECEDF9E0E4907AEFC72E97
:102F700030E020E04DED59E070E060E08FE090E05F
:102F80000E94970B87E390E09093970680939606B4
:102F90008AE290E09093990680939806609194015C
:102FA0007091950180919601909197014AE00E945D
:102FB00012108FEF0E9480078823D9F182E090E001
:102FC00034C05D9AA1CF81E190E00E946010182F7B
:102FD00082E190E00E946010163411F4823569F1AC
:102FE00081E190E06D969FAF8EAF6D9766E4CE0164
:102FF000855A9F4F0E94DF1082E190E06D969FAF4F
:103000008EAF6D9762E5CE01855A9F4F0E94DF100B
:103010006F961CAE1DAE1EAE1FAE6F97CE01855AC9
:103020009F4F0E94F81081E090E090939D01809363
:103030009C0180E00E945708A2CE83E190E00E94AC
:10304000B01B8093940184E190E00E94B01B8093B8
:10305000950185E190E00E94B01B8093960186E186
:1030600090E00E94B01B80939701DDCF80917100AA
:103070008D7F8093710081E08093930185EE9CE0C9
:1030800090939201809391019093900180938F018E
:103090000E94F20A07E416E0FF24F394F801F18697
:1030A00060E470E080E090E00E946410F8016583C5
:1030B0006CE870E080E090E00E946410F8016483A6
:1030C000168267E070E080E090E00E9464106D5F1F
:1030D0007F4F8F4F9F4FF80167830A5F1F4FF6E0C6
:1030E00003381F07D9F6E4EBF5E086EE95E021857D
:1030F000211111863A968E179F07C9F710929801F1
:103100001092990110929A0110929B01DD24D394A0
:10311000D09200018AE0E5E2F1E0DE015F960190E5
:103120000D928A95E1F7EF8CF8A009A11AA12BA1C5
:103130003CA14DA15EA16FA178A584EB95E00E9412
:10314000CA0E64E070E080E090E00E946410162FE8
:1031500064E070E080E090E00E946410C62E29E0F8
:10316000129FC00111241C1509F46FC0D9A61AA61C
:103170001BA650E8B52EA12C1B2DBCA6ADA64496CF
:10318000382F9FA78EA718AA66E0762E79AADAAA0A
:10319000EE24E394F12C00E020E04FA550E066E03F
:1031A00071E084EB95E00E94CA0EDBAA1CAA1DAA5E
:1031B000BEAAAFAA49E0C49EC00111244496382F8C
:1031C00099AF88AF1AAE7BAEDCAE20E049AD50E0DF
:1031D00066E071E084EB95E00E94CA0E62E070E068
:1031E00080E090E00E9464108AE0611152C0EFE23A
:1031F000F1E0DE01A95BBF4F01900D928A95E1F7E6
:103200002896EFAC28972996FFAC29972A960FAD00
:103210002A972B961FAD2B972C962FAD2C972D967A
:103220003FAD2D972E964FAD2E972F965FAD2F97D2
:1032300060966FAD609761967FAD619784EB95E086
:103240000E94CA0E84E090E0F0CEDDAE1EAE1FAE4E
:1032500020E8122F21962FAF219722961FAE22979A
:103260004496382F24969FAF8EAF249725961FAE95
:10327000259786E026968FAF26972796DFAE27976D
:10328000EE24E394F12C00E020E024964FAD249747
:103290009ECFE9E3F1E0DE01AF5ABF4F01900D92FE
:1032A0008A95E1F76296EFAC62976396FFAC6397FD
:1032B00064960FAD649765961FAD659766962FADC2
:1032C000669767963FAD679768964FAD6897699622
:1032D0005FAD69976A966FAD6A976B967FAD6B9796
:1032E000ADCF6253609348066CE870E080E090E0F8
:1032F0000E946410645C7F4F8F4F9F4F609347061E
:1033000081E080934906B2C0815080934706809146
:103310004906882309F4AAC010924906A7C062E0B2
:1033200070E080E090E00E946410F8018481861BC8
:103330008483C5C0848190910001891B848381119D
:10334000BEC01186BCC0F18660E270E080E090E013
:103350000E946410F80165836FE770E080E090E000
:103360000E946410F8016483168267E070E080E0D8
:1033700090E00E9464106D5F7F4F8F4F9F4FF80168
:10338000678310869CC021E02D8B1E8A1F8A30E83F
:10339000132F388F198E4496382F9B8F8A8F1C8E4F
:1033A00086E08D8F2E8FEE24E394F12C00E020E058
:1033B0004B8D0AC10E94A70D0E948B070E94B10786
:1033C0008FEF0E948007882309F433CE81E090E0DC
:1033D00090939D0180939C01809198019091990117
:1033E000A0919A01B0919B01409194015091950157
:1033F0006091960170919701481759076A077B07FA
:1034000008F017CE8093940190939501A0939601B4
:10341000B093970184E991E00E94F8100ACE8330BE
:10342000910541F2049709F004CE8091470681117D
:103430006BCF60E071E080E090E00E946410162F96
:1034400060E071E080E090E00E94641067FF06C0D9
:1034500080914A0691E0892780934A066091480648
:10346000610F633308F03DCF6093480607E416E030
:10347000FF24F394F8018185882309F464CF8085C3
:10348000811158CF96819F5F96838581813418F48E
:103490002781291710F4F801F0868D5FF8018583E4
:1034A00080914A06882309F43ACF62E070E080E018
:1034B00090E00E946410F8018481680F64830A5FC1
:1034C0001F4F43E856E040175107A1F60E94A70D91
:1034D0000E948B070E94B107E4EBF5E086EE95E0D1
:1034E0002185222321F02081213009F474C03A96ED
:1034F0008E179F07A9F760919801709199018091AB
:103500009A0190919B016F5F7F4F8F4F9F4F609308
:1035100098017093990180939A0190939B01A20165
:1035200091010E94F81B672B682B692B29F480916D
:1035300000018F5F8093000164E070E080E090E024
:103540000E946410162F64E070E080E090E00E941A
:103550006410D62E59E0159FC00111241D1509F4E1
:1035600012CFCC24C394C9821A821B8220E8B22EC7
:10357000A12C1B2DBC82AD824496382F9F838E8355
:10358000188646E0742E7986CA86EE24E394F12CE0
:1035900000E020E04F8150E066E071E084EB95E0D0
:1035A0000E94CA0ECB861C861D86BE86AF86E9E0C9
:1035B000DE9EC00111244496382F998B888B1A8A7D
:1035C0007B8ACC8A20E0498950E066E071E084EB98
:1035D00095E00E94CA0E80910001843018F083E0CB
:1035E0008093000107E21EE0F8016491662341F038
:1035F00087E896E00E94C20D0F5F1F4F892BA1F74D
:10360000609198017091990180919A0190919B012C
:103610004AE00E9412100DCD8F929F92AF92BF92FE
:10362000CF92DF92EF92FF92CF93DF93EC0168810C
:1036300079818A819B81611571058105910521F44C
:1036400064E279ED8BE597E02DE133EF41E050E066
:103650000E94C61B49015A019B01AC01A7EAB1E4D3
:103660000E94E51B6B017C01ACEEB4EFA501940157
:103670000E94F31BC60ED71EE81EF91EF7FE06C0F9
:1036800081E0C81AD108E10880E8F80AC882D98226
:10369000EA82FB82C701B6019F77DF91CF91FF904D
:1036A000EF90DF90CF90BF90AF909F908F90089554
:1036B0008F929F92AF92BF92CF92DF92EF92FF9242
:1036C00060910D0170910E0180910F019091100198
:1036D000611571058105910521F464E279ED8BE5B1
:1036E00097E02DE133EF41E050E00E94C61B490115
:1036F0005A019B01AC01A7EAB1E40E94E51B6B01F2
:103700007C01ACEEB4EFA50194010E94F31BC60E40
:10371000D71EE81EF91EF7FE06C081E0C81AD108C0
:10372000E10880E8F80AC0920D01D0920E01E09203
:103730000F01F0921001C701B6019F77FF90EF9043
:10374000DF90CF90BF90AF909F908F90089560933F
:103750000D0170930E0180930F0190931001089555
:10376000F999FECF92BD81BDF89A992780B5089549
:10377000262FF999FECF1FBA92BD81BD20BD0FB68D
:10378000F894FA9AF99A0FBE01960895052E97FBC0
:103790001EF400940E94DD1B57FD07D00E94F81B09
:1037A00007FC03D04EF40C94DD1B509540953095EA
:1037B00021953F4F4F4F5F4F08959095809570959D
:1037C00061957F4F8F4F9F4F08950E941A1CA59FB0
:1037D000900DB49F900DA49F800D911D112408950C
:1037E000B7FF0C94E51B0E94E51B821B930B089509
:1037F000A1E21A2EAA1BBB1BFD010DC0AA1FBB1FF5
:10380000EE1FFF1FA217B307E407F50720F0A21B66
:10381000B30BE40BF50B661F771F881F991F1A94D3
:1038200069F760957095809590959B01AC01BD01FD
:10383000CF010895A29FB001B39FC001A39F700D57
:10384000811D1124911DB29F700D811D1124911DA8
:103850000895991B79E004C0991F961708F0961BEC
:10386000881F7A95C9F780950895EE0FFF1F059080
:10387000F491E02D099481E090E0F8940C94401CC0
:04388000F894FFCFEA
:1038840001FFFFFFFF00E100000000000001000055
:10389400000200008000EDFF002001020000800013
:1038A40022000020010000000A000A0000110102A9
:1038B4000000C000EDFF002001020000C000220053
:1038C40000200100C180810000004D0F330F190F4B
:1038D400D20F970F7E1000000000B5084D0AD608DD
:1038E400CB081C09DA08F80800000000C20DC8095A
:0C38F400C70EC60EA014FCFF0000E2147A
:00000001FF
