:100000000C94F2060C941A070C941A070C941A0715
:100010000C941A070C941A070C941A070C941A07DC
:100020000C941A070C941A070C944E100C94BD10E3
:100030000C941A070C941A070C941A070C941A07BC
:100040000C941A070C941A070C941A070C941A07AC
:100050000C941A070C941A070C941A070C94EF12BC
:100060000C941A070C941A070C941A070C941A078C
:100070000C941A070C941A070C941A070C941A077C
:100080000C9439130C941A070C941A070C941A0741
:100090000C941A070C941A070C941A070C941A075C
:1000A0000C941A070C941A070C941A070003000307
:1000B000000100023EFFFFE68000000018FCFEFC8D
:1000C000FCFCFCFCFEFC1800000000000000013FEE
:1000D000FFFFFF7F7F7F7F7FFFFFFF3F0703000062
:1000E000000000000000000000010000000000000F
:1000F0000001000000000000000000003EFFFFE6DD
:100100008000000018FCFEFCFCFCFCFCFEFC18005F
:10011000000000000000013FFFFFFF7F7F7F7F7F27
:100120007F7F7F3F07030000000000000000000009
:1001300000010000000000000000000000000000BE
:10014000000000003EFFFFE68000000018FCFEFCFF
:10015000FCFCFCFCFEFC1800000000000000013F5D
:100160007F7F7F7F7F7F7F7FFFFFFF3F0703000051
:10017000000000000000000000000000000000007F
:100180000001000000000000000000003EFFFFE64C
:100190008000000018FCFEFCFCFCFCFCFEFC1800CF
:1001A000000000000000013FFFFFFF7F7F7F7F7F97
:1001B000FFFFFF3F070300000000000000000000F9
:1001C000000100000000000000010000000000002D
:1001D0000000000018183EC119668000000018E4F5
:1001E00002044404044402E418000000000000007B
:1001F000013EC0018141414142448404C53C0403A5
:1002000000000000000000000000000100000000ED
:1002100000000001000000000000000000003EC1DE
:1002200019668000000018E402044404044402E457
:100230001800000000000000013EC0018141414162
:1002400042444444453C0403000000000000000018
:10025000000000010000000000000000000000009D
:100260000000000000003EC119668000000018E494
:1002700002044404044402E41800000000000000EA
:10028000013E40414141414142448404C53C040394
:10029000000000000000000000000000000000005E
:1002A00000000001000000000000000000003EC14E
:1002B00019668000000018E402844404044482E4C7
:1002C0001800000000000000013EC00181414141D2
:1002D00042448404C53C0403000000000000000008
:1002E000000000010000000000000001000000000C
:1002F000000000000000B000AC000070F8F8FCFC4A
:10030000FEFEFEFEFEFEFEFEFEFEFEFEFCFCF8F81D
:100310003000000003030101010107070703010189
:100320000307070303030301000018107088040487
:1003300002020101010101010101010101010202A9
:100340000404C8300003040402020206080808047A
:100350000202040808040404040201000000000072
:10036000003E5B4F5B3E3E6B4F6B3E1C3E7C3E1C3B
:10037000183C7E3C181C577D571C1C5E7F5E1C0081
:10038000183C1800FFE7C3E7FF0018241800FFE738
:10039000DBE7FF30483A060E2629792926407F05FB
:1003A0000507407F05253F5A3CE73C5A7F3E1C1C11
:1003B00008081C1C3E7F14227F22145F5F005F5FD1
:1003C00006097F017F006689956A606060606094BD
:1003D000A2FFA29408047E040810207E20100808C2
:1003E0002A1C08081C2A08081E101010100C1E0CCD
:1003F0001E0C30383E3830060E3E0E06000000005F
:100400000000005F00000007000700147F147F1445
:10041000242A7F2A1223130864623649562050008A
:1004200008070300001C2241000041221C002A1C76
:100430007F1C2A08083E0808008070300008080861
:100440000808000060600020100804023E51494581
:100450003E00427F400072494949462141494D339F
:100460001814127F1027454545393C4A4949314106
:10047000211109073649494936464949291E0000D4
:100480001400000040340000000814224114141429
:100490001414004122140802015909063E415D5915
:1004A0004E7C1211127C7F494949363E414141221E
:1004B0007F4141413E7F494949417F090909013E48
:1004C000414151737F0808087F00417F410020406F
:1004D000413F017F081422417F404040407F021C81
:1004E000027F7F0408107F3E4141413E7F09090998
:1004F000063E4151215E7F09192946264949493264
:1005000003017F01033F4040403F1F2040201F3F29
:100510004038403F631408146303047804036159AE
:10052000494D43007F4141410204081020004141F0
:10053000417F04020102044040404040000307089C
:100540000020545478407F28444438384444442898
:10055000384444287F385454541800087E0902183F
:10056000A4A49C787F0804047800447D40002040C7
:10057000403D007F1028440000417F40007C04780B
:1005800004787C080404783844444438FC18242453
:100590001818242418FC7C080404084854545424D3
:1005A00004043F44243C4040207C1C2040201C3C50
:1005B0004030403C44281028444C9090907C446447
:1005C000544C4400083641000000770000004136DA
:1005D000080002010204023C2623263C1EA1A16160
:1005E000123A4040207A3854545559215555794192
:1005F0002154547841215554784020545579400C69
:100600001E52721239555555593954545459395549
:100610005454580000457C410002457D420001458C
:100620007C40F0292429F0F0282528F07C545545F9
:10063000002054547C547C0A097F4932494949328C
:100640003248484832324A4848303A4141217A3AA1
:1006500042402078009DA0A07D39444444393D406B
:1006600040403D3C24FF2424487E4943662B2FFC18
:100670002F2BFF0929F620C0887E090320545479C6
:10068000410000447D413048484A32384040227A97
:10069000007A0A0A727D0D19317D2629292F282614
:1006A0002929292630484D4020380808080808081C
:1006B0000808382F10C8ACBA2F102834FA00007B75
:1006C000000008142A142222142A1408950022007B
:1006D00095AA005500AAAA55AA55AA000000FF0035
:1006E000101010FF00141414FF001010FF00FF1072
:1006F00010F010F0141414FC001414F700FF0000A4
:10070000FF00FF1414F404FC141417101F10101F22
:10071000101F1414141F00101010F0000000001F10
:10072000101010101F10101010F010000000FF101B
:100730001010101010101010FF10000000FF140017
:1007400000FF00FF00001F10170000FC04F4141449
:100750001710171414F404F40000FF00F714141415
:1007600014141414F700F7141414171410101F1095
:100770001F141414F4141010F010F000001F101FB8
:100780000000001F14000000FC140000F010F01026
:1007900010FF10FF141414FF141010101F0000009D
:1007A00000F010FFFFFFFFFFF0F0F0F0F0FFFFFFA1
:1007B0000000000000FFFF0F0F0F0F0F38444438F8
:1007C000447C2A2A3E147E02020606027E027E0233
:1007D00063554941633844443C04407E201E200652
:1007E000027E020299A5E7A5991C2A492A1C4C728F
:1007F00001724C304A4D4D303048784830BC625A16
:10080000463D3E494949007E0101017E2A2A2A2AA5
:100810002A44445F444440514A444040444A514081
:100820000000FF0103E080FF000008086B6B083642
:1008300012362436060F090F0600001818000000B3
:100840001010003040FF0101001F01011E00191DA2
:100850001712003C3C3C3C0000000000F0F89C8E6D
:100860008783878E9CF8F00000FEFF0303030303D9
:10087000070EFCF80000FEFF0303030303070EFC52
:10088000F80000FFFF00000000000000FFFF000074
:10089000FEFF8383838383C7EE7C380000F8FC0E61
:1008A00007030303070EFCF800003F7FE0C08080D1
:1008B000C0E07F3FFFFF01010101010101FFFF00D7
:1008C00000FFFF0C0C0C0C1C3E77E3C100007FFF07
:1008D000C0C0C0C0C0E0703F1F00001F3F70E0C03C
:1008E000C0C0E0703F1F00007FFFC1C1C1C1C1E3B4
:1008F000773E1C00001F3F70E0C0C0C0E0703F1F8B
:10090000000000000001FFFF01000000D5F08D1481
:10091000A1C881CFD9F1AF2000613C0000000000E8
:100920000000C060201010100808080808081824EB
:10093000C404040818E808102040403008040404E7
:10094000F418080404040202020202020608F00875
:10095000040202020202020608F40602020206FC77
:1009600018080C0602020202828282C64C7808082D
:1009700008080808080818103060C00000000000CF
:10098000000000FF00000000000000180808080C2C
:100990000487F80000007F40404040408000000095
:1009A00000FF8000000000000006020202C3416157
:1009B0001E00000006020202C341611E000000800A
:1009C0007F000000000000002020202161E1A31E24
:1009D00000000C08080818183864C407000000005C
:1009E00000000000030E3860C0808080808080C0DE
:1009F0007F0101071C30202020203010101F101014
:100A0000100C04030E1830202020202020301F0856
:100A10001810202020202020301F40C0808080809F
:100A20008181818181C16F78404040602020705970
:100A30008F8282848484808080C0E07B1E000000DE
:100A40000000000000000000000000F82828D0008E
:100A5000F02828F00008F80800F80808F0009820AE
:100A600020F800000000C02010080884448404041A
:100A700004048444840408081020C000000000F826
:100A80000808F000F02828F000982020F800000066
:100A90000000000000000000000000000000000056
:100AA0000000000000000000000000000100000144
:100AB000000100000100010101000100000100002F
:100AC000010100000000000F08040479808090A15B
:100AD0009494A190808079040408080F000000001D
:100AE00001010100000100000100000101000000FF
:100AF00000000000000000000000000000000000F6
:100B000000F820F80088F888007088A8E800F8202D
:100B1000F800B8A8E800F8888800F888F800F828F5
:100B2000D000F8A88800500000000000000000007D
:100B300000000000000000000000000000000000B5
:100B400000000000000000000000000000000000A5
:100B50000000000000000000000000000000000095
:100B60000000000000000000000000000000000085
:100B700000000000000000000000000000007C14E5
:100B80001C007C1468007C5444005C5474005C5469
:100B900074000078147800007C106C007C544400D1
:100BA0000C700C005C000000000000000000000061
:100BB0000000000000000000000000000000000035
:100BC0000000000000000000000000000000000025
:100BD0000000000000000000000000000000000114
:100BE00001010101010101010101010101010101F5
:100BF00001010101010101010101010101010101E5
:100C000001010101010100000000000000000000DE
:100C100000000000000000000000000000000000D4
:100C20000000001003C800A403C8004B02C8006EF7
:100C300002C8001003C800A403C8004B02C8006E1D
:100C400002C8001003C800A403C8004B02C8006E0D
:100C500002C8001003C800A403C8004B02C8006EFD
:100C600002C800BA02C8003F03C8000B02C8002A2D
:100C700002C800BA02C8003F03C8000B02C8002A1D
:100C800002C800BA02C8003F03C8000B02C8002A0D
:100C900002C800BA02C8003F03C8000B02C8002AFD
:100CA00002C8001704C800A403C8006E02C800BA36
:100CB00002C8003F03C8001003C8006E02C8000B42
:100CC00002C8001704C800A403C8006E02C800BA16
:100CD00002C8003F03C8001003C8006E02C8000B22
:100CE00002C8001704C800A403C8006E02C800BAF6
:100CF00002C8003F03C8001003C8006E02C8000B02
:100D000002C8003F03C8001003C8000B02C8006EF1
:100D100002C8003F03C8001003C800A403C800BAFB
:100D200002C8003F03C8001003C8000B02C8006ED1
:100D300002C8003F03C8001003C800A403C800BADB
:100D400002C8003F03C8001003C8000B02C8006EB1
:100D500002C8003F03C8001003C800A403C800BABB
:100D600002C800018053636F72653A00080B0002ED
:100D70000202000009040000010202000005240034
:100D800010010524010101042402060524060001C6
:100D90000705810310004009040100020A00000059
:100DA000070502024000000705830240000004031B
:100DB000090412010002EF020140412336800001C4
:100DC0000102030141726475696E6F204C4C43004F
:100DD00041726475696E6F204C656F6E6172646FED
:100DE0000000121411241FBECFEFDAE0DEBFCDBF2A
:100DF00011E0A0E0B1E0ECE0F6E302C005900D9256
:100E0000A035B107D9F726E0A0E5B1E001C01D92F9
:100E1000A237B207E1F716E0C2EFD6E004C021978F
:100E2000FE010E94F91AC13FD107C9F70E94581468
:100E30000C94041B0C94000080915E010895909125
:100E40006506982329F490916406982381E009F4BB
:100E500080E00895CF93DF938091BA058F5F6AE0B9
:100E60000E94ED1A9093BA05C8E8D5E089858823D9
:100E700079F0E881E23060F4F0E0EE0FFF1FEA5D08
:100E8000FE4F0190F081E02D68E875E0CE010995F4
:100E90002A9685E0CA3BD80749F7DF91CF9108959C
:100EA000AF92BF92CF92DF92EF92FF920F931F9378
:100EB000CF93DF93CDB7DEB764970FB6F894DEBF5C
:100EC0000FBECDBF8E01055F1F4FA8E8B5E0CE0174
:100ED00001965C01B80190E080E0950146EFE42EB8
:100EE000FF24FA94FB0181939193BF014C91442319
:100EF00009F47AC01896DC90189715964D915C917C
:100F000016974D0D511DD7FC5A95F501518340831D
:100F100001961A96F2E0AF0EB11C8530910511F7DB
:100F200041E0542FE52FF0E0DF011197AA0FBB1F1E
:100F3000A20FB31F6D917C911197EE0FFF1FE20F6F
:100F4000F31F8081918186179707A0F4E284F384D0
:100F50001A96CD90DC901B97D386C286FF241B96F1
:100F6000FC92EE921A977183608399278D939C93DC
:100F70005150C1F64F5F4530A1F678014AE0E40ECA
:100F8000F11C3AE0D32ED8012D913D918D01D29ED6
:100F9000C001D39E900D112488579A4FFC012185E2
:100FA000222371F0E081E23058F4F0E0EE0FFF1FF1
:100FB000EE5DFE4F0190F081E02D68E875E0099547
:100FC0000E151F0501F764960FB6F894DEBF0FBE2D
:100FD000CDBFDF91CF911F910F91FF90EF90DF90E8
:100FE000CF90BF90AF900895F501F182E08290CF4D
:100FF0000F931F93CF93DF93CDB7DEB72A970FB62A
:10100000F894DEBF0FBECDBF09831A832B833C83C8
:101010004D835E836F8378878987E8E8F5E090E009
:1010200080E02185211127C02AE0289FF001299F17
:10103000F00D1124E857FA4F8C819D8194838383AE
:101040008E819F81968385838A8181838B81828330
:1010500089818083888587838985808781E08187EE
:101060002A960FB6F894DEBF0FBECDBFDF91CF91A9
:101070001F910F91089501963A968530910589F652
:1010800080E0EECFE8E8F1E0A0E0B8E000800EBC40
:101090008111012C1197A0FDFDCF0192B9F70DB47C
:1010A0000895FC0180918701882311F13FB7F894DE
:1010B00082E08093E9002091F200822F90E01816E0
:1010C000190614F481E090E0882339F0289844E66A
:1010D000409386014091F1004083222339F0209112
:1010E000F200211103C02BE62093E8003FBF0895D2
:1010F0008FEF9FEF08952FB7F89483E08093E90076
:101100009091E800892F807295FF04C09091F200C1
:1011100080E4891B2FBF089580917E0181110DC04D
:1011200082E080937A0184E080937B0110927D01BC
:1011300010927C0181E080937E018AE791E008951E
:10114000CF93DF931F92CDB7DEB76983DC01ED91BA
:10115000FC910280F381E02D41E050E0BE016F5F21
:101160007F4F09950F90DF91CF91089583E0809391
:10117000E9008091F200882319F08AE38093E80067
:1011800008950E947B0890E00895CF93DF931F920B
:10119000CDB7DEB7FC018485958597FD08C02FEF9C
:1011A0003FEF358724870F90DF91CF910895CE01CF
:1011B00001960E945108019719F4898190E0F3CFBC
:1011C0008FEF9FEFF0CF0F931F93CF93DF931F927B
:1011D000CDB7DEB78C01FC018485958597FF0BC0E8
:1011E000CE0101960E945108019771F4898190E027
:1011F000F80195878487F801848595850F90DF91A4
:10120000CF911F910F9108958FEF9FEFF1CFFC01C8
:101210008485958597FD0BC09FB7F89482E08093F5
:10122000E9008091F2009FBF90E0019608959FB77A
:10123000F89482E08093E9008091F2009FBF90E0F3
:10124000089540917401509175012091720130917F
:10125000730142175307B4F49091E8009570E1F3DD
:101260009091E80092FD19C08093F1008091740183
:101270009091750101968F739927892B19F48EEF40
:101280008093E8008091740190917501019690938C
:1012900075018093740181E0089580E00895DF92E4
:1012A000EF92FF920F931F93CF93DF93D82E8A0173
:1012B000EB017B01E40EF51ECE15DF0559F0D7FEDC
:1012C00012C0FE0184910E94210921968111F4CF60
:1012D0000FEF1FEFC801DF91CF911F910F91FF908A
:1012E000EF90DF9008958881EECF0F931F93CF93F7
:1012F000DF931F92CDB7DEB782E0898342E450E0EE
:101300006CE67DE080E80E944F090E948C08DC01B9
:1013100012960D911C910115110589F0D801ED91DE
:10132000FC910280F381E02DBE016F5F7F4FC80109
:10133000099597FD04C0F80100851185ECCF8981DE
:101340000F90DF91CF911F910F910895615030F070
:101350002091F100FC0120830196F8CF289884E6C3
:10136000809386010895AF92BF92CF92DF92EF9261
:10137000FF920F931F93CF93DF936C017B018B013F
:10138000040F151FEB015E01AE18BF08C017D1078F
:1013900059F06991D601ED91FC910190F081E02D19
:1013A000C6010995892B79F7C501DF91CF911F916E
:1013B0000F91FF90EF90DF90CF90BF90AF90089586
:1013C0003FB7F89480915A0190915B01A0915C0124
:1013D000B0915D0126B5A89B05C02F3F19F001967D
:1013E000A11DB11D3FBFBA2FA92F982F8827BC017F
:1013F000CD01620F711D811D911D42E0660F771FA7
:10140000881F991F4A95D1F708958F929F92AF92A6
:10141000BF92CF92DF92EF92FF926B017C010E940C
:10142000E0094B015C01C114D104E104F104B9F0FD
:101430000E94E009681979098A099B09683E73408E
:101440008105910580F321E0C21AD108E108F10875
:1014500088EE880E83E0981EA11CB11CE4CFFF909B
:10146000EF90DF90CF90BF90AF909F908F900895B6
:101470008F929F92AF92BF92CF92DF92EF92FF92A4
:101480000F931F93CF93DF936C017B018A018091AF
:101490000C01882309F45CC080918701882309F43A
:1014A00057C08091790180FF05C08091E000826083
:1014B0008093E000E801B12C8AEFA82E93E0892EFA
:1014C0002AE3922E209711F4BB20D9F10E947B08C9
:1014D00081110AC0AA94AA20D9F161E070E080E0ED
:1014E00090E00E94050AEECF8C171D0611F00CF05B
:1014F0008C2F9FB7F8948092E9002091E80025FD99
:1015000002C09FBFDFCF282F30E0C21BD30BF701F3
:10151000815020F041914093F100FACFE20EF31E8A
:10152000BB2021F09092E800B12CEBCF8091E80035
:1015300085FDE7CF9092E800BB24B394209709F390
:10154000F3CF5D9884E680937801101611063CF085
:1015500081E090E0F6019383828310E000E0C8010F
:10156000DF91CF911F910F91FF90EF90DF90CF907F
:10157000BF90AF909F908F90089520916701E09168
:101580006501F0916601CF01029690936601809308
:101590006501222319F085919491089580819181AC
:1015A0000895E1E7F0E080818D7F808310929100C3
:1015B00046984798109252010895CF92DF92EF9289
:1015C000FF92CF93DF930E94BD0A811520E8920716
:1015D00041F4DF91CF91FF90EF90DF90CF900C948A
:1015E000D10A21E020935201813020E8920751F482
:1015F00080916301909164019093660180936501ED
:101600000E94BD0A97FD05C020915101222309F4D3
:101610005BC020915001211157C021E0209353015C
:10162000EC01DF77209709F052C081E080935401EC
:1016300046983FE9C32E3FE0D32EE12CF12CCAEFB0
:10164000D0E0E0911906F0911A060995811103C0C6
:1016500081E08093540180915301882329F0809187
:101660005401882309F446C047980E94BD0A009798
:1016700009F444C09C01DE010E94DE1ADC01CB01AA
:1016800029E0B595A795979587952A95D1F710925A
:1016900090002AE020939100D0929900C092980087
:1016A0008093550190935601A0935701B093580130
:1016B00080917100826080937100DF91CF91FF90E3
:1016C000EF90DF90CF90089510925301A9CF9E0123
:1016D00050E040E060E472E48FE090E00E948A1AFB
:1016E00069017A0181E0C81AD108E108F108109275
:1016F0005401A7CF4699B8CF479AB7CF8FEF9FEF46
:10170000DC01C5CF4F925F926F927F928F929F9232
:10171000AF92BF92CF92DF92EF92FF920F931F93FF
:10172000CF93DF934C015901FC2DC02FD0E0CE01A7
:10173000880D991D181619060CF06CC020E8821649
:1017400091040CF067C09B012E0D311D121613067B
:101750000CF060C0603471050CF05CC0411551059F
:1017600009F458C0E62FE770FE2EDB0177FD1796CF
:1017700033E0B595A7953A95E1F73A2F77FF04C086
:10178000FF2011F03FEF3A0F662777276819790994
:1017900097FC02C070E060E0803891050CF44BC00B
:1017A00090E89819961BA32F032E000CBB0B1A2F41
:1017B00010953F3F0CF010E021E08E2D877009F46A
:1017C00020E0E694E694E694E20EAE0DB11D199782
:1017D0001CF028E0E22EE31AE11A310F20E8320370
:1017E000D0011124A80DB91DA60FB71F019F600DD0
:1017F000711D1124460F571F0F2D0F2C000C110BBC
:10180000F33009F41CC1C8F4F13009F4D0C0F2304F
:1018100009F47CC0DF91CF911F910F91FF90EF9061
:10182000DF90CF90BF90AF909F908F907F906F9000
:101830005F904F900895902FB5CFFA3FB1F1232FCD
:101840002E0DFB3F39F7321729F3BD0168577E4F44
:10185000D12CC12CC91608F0A4C0FA01EC0DFD1D55
:10186000E491F0E04F01002E02C0880C991C0A940C
:10187000E2F737FD06C0FB018081E82CE0948E2161
:101880008083FF2061F0373054F45B01F0E8AF0E45
:10189000B11CE92CE094F50180818E218083FFEF5B
:1018A000CF1ADF0A6F5F7F4FD5CF232F2E0D321750
:1018B00009F4B0CFBD0168577E4FD12CC12CC91699
:1018C00008F069C0FA01EC0DFD1DE491F0E04F0154
:1018D000002E02C0880C991C0A94E2F737FD04C060
:1018E000FB01808188298083FF2051F0373044F448
:1018F0005B01F0E8AF0EB11CF5018081892980837E
:10190000FFEFCF1ADF0A6F5F7F4FD9CF6FEF70E025
:101910000F2C02C0660F771F0A94E2F7609570954E
:10192000772E232F2E0D321709F474CFFD01E857BF
:10193000FE4F6F01B12CA12CA91638F5FA01EA0D62
:10194000FB1DE491F0E02F01002E02C0440C551C59
:101950000A94E2F737FD05C0F601808186238429C9
:101960008083FF2059F037304CF44601F0E88F0EA9
:10197000911CF4018081872185298083FFEFAF1AB4
:10198000BF0A8FEFC81AD80AD7CF3F5F4C0F5D1F31
:10199000A058BF4FC8CF3F5F4C0F5D1FA058BF4F2F
:1019A00086CF3F5F4C0F5D1FA058BF4F4CCF6A0DD5
:1019B0007B1D232F2E0D321709F42CCFFD01E85784
:1019C000FE4F6F01B12CA12CA91688F5FB01EA0D81
:1019D000FB1D8490912C002E02C0880C991C0A9447
:1019E000E2F780949094FA01EA0DFB1D6490712C4B
:1019F000002E02C0660C771C0A94E2F737FD05C082
:101A0000F6018081882186298083FF2049F03730C4
:101A10003CF4F601E058FF4F8081892187298083BB
:101A2000FFEFAF1ABF0A8FEFC81AD80ACDCF3F5FBA
:101A30004C0F5D1F6C0F7D1FA058BF4FBCCFC92E30
:101A4000D12CFA01E60FF71FA857BE4F00E810E0AF
:101A50000C191D09CC19DD09BE01660F771F41E085
:101A600050E06A010F2C01C0CC0C0A94EAF7592F00
:101A70002E2D792ECF93DF93ED01EF96EF962296E0
:101A80008590A590FF2059F08C9C4001AC9C5001A2
:101A900037302CF4E880B094EB20E928E992332326
:101AA0003AF0EC90A094EA20E828ED920C94590DBD
:101AB00011965A9529F72A9551F0572D33951124EF
:101AC000E60FF11DA00FB11DC00FD11DD9CFDF91C1
:101AD000CF9111249FCE2D9A0895BC0190E080E013
:101AE0000C94050A8FB18095807F669B88601C9B53
:101AF0008460089520E191E061FD94E060FD990F1C
:101B000062FD9295687F269FD0011124A80FA857E7
:101B1000BE4F8C9140FF03C0892B8C930895909504
:101B20008923FBCFCF93DF93CBE1D6E08985882350
:101B300061F08C8187FD09C06D8170E060347105B2
:101B400024F441E090E00E947A0D269686E0C735A5
:101B5000D80761F7DF91CF9108952F923F924F926E
:101B60005F926F927F928F929F92AF92BF92CF922D
:101B7000DF92EF92FF920F931F93CF93DF93CDB736
:101B8000DEB728970FB6F894DEBF0FBECDBF9E8399
:101B90008D836A3061F5DC0155968C91B8E08B9F9E
:101BA00090011124ED81FE8181899289820F931F1A
:101BB000928B818B108A178681E090E028960FB671
:101BC000F894DEBF0FBECDBFDF91CF911F910F9173
:101BD000FF90EF90DF90CF90BF90AF909F908F904D
:101BE0007F906F905F904F903F902F9008956D3051
:101BF00019F32D813E8138872F83D9011F960D91CE
:101C00001C915097003811050CF07CC05196AD9096
:101C1000BC90B0E4AB16B1040CF074C0F901258897
:101C200025E0C801229E800D911D11241816190669
:101C30000CF068C0622C712CC30133E0880F991F2F
:101C40003A95E1F78A0D9B1D181619060CF05AC03B
:101C5000F489FB83AF81B8855396BC91BC83629FA6
:101C6000B0011124FB01E45AFC4F2F011982F2014B
:101C70008491F981F53009F480E0450128E02A8358
:101C8000A82FB0E0BE83AD833C8080FF3B80311045
:101C900004C0BB81EC81BE17F9F078018E2D801B4A
:101CA0008215D0F4D12CC12CC21490F4F0E8EF16B8
:101CB000F10450F4B601680D791D6034710520F40B
:101CC000432DC7010E947A0D2FEFC21AD20AECCF22
:101CD0003FEFE31AF30AE2CF8D819E8195958795B8
:101CE0009A8191509A83860C971C9111C9CFA98132
:101CF000AF5FA983BFEF4B1A5B0A060D171DA63015
:101D000009F0B5CFEF81F8852589422F50E087850E
:101D10009089F6E02F9F800D911D1124AF81B88529
:101D200050969C938E931F9756962C9156972223EC
:101D300009F442CF6AEF64039001659F300D1124CE
:101D400020583F4F281739070CF036CFED91FC9102
:101D500011970190F081E02D6AE0CD0109952CCF1B
:101D60000895089590E080E00895CF92EF920F9348
:101D7000EAE2F3E00491EBE2F3E0E490FC01658138
:101D80007681CC24C3942AEF32E04CE253E0838185
:101D900094810E94820B0F91EF90CF900895CF9283
:101DA000EF920F93CF93DF93EC01AB81BC816D81F8
:101DB0007E81E981F0E0EE0FFF1FEA50FD4F949124
:101DC000EA81E90FFF27FF1F8491E4EDF1E0049120
:101DD000E5EDF1E0E49024EB30E046ED51E08823BE
:101DE000E9F041E050E09E2D977011F450E040E0A2
:101DF0002E2D269526952695240F352F311D029FD1
:101E0000F001039FF00D11248E9FA0018F9F500DB4
:101E100011249A012C543F4F4A525E4FCC24C39454
:101E2000CD010E94820BDF91CF910F91EF90CF9067
:101E300008950F931F93CF93DF93EC018B0180E8FC
:101E40000E941F07882341F08D819E818B30910570
:101E50001CF009979E838D8380E10E941F078823D1
:101E600041F08D819E818E3291051CF409969E83EE
:101E70008D8388E00E941F07882311F081E0898309
:101E800084E00E941F07882339F0198281E090E0E6
:101E90009093710180937001F80182A9893021F437
:101EA0008A818F5F83708A83DF91CF911F910F9119
:101EB00008958F929F92AF92BF920F931F93CF93EB
:101EC000DF93CDB7DEB7A1970FB6F894DEBF0FBE94
:101ED000CDBF19A2423008F44AE08E010F5D1F4FBA
:101EE000842E912CB12CA12CA50194010E94BC1A26
:101EF000E62FB901CA01EA3044F5E05DD801EE935E
:101F00008D01232B242B252B79F790E080E010976F
:101F100069F0FD0101900020E9F73197AF014A1BFC
:101F20005B0BBD018BE596E00E94B309A1960FB64D
:101F3000F894DEBF0FBECDBFDF91CF911F910F91FF
:101F4000BF90AF909F908F900895E95CD7CF0C948D
:101F5000741A0E94FF1ACF92DF92EF92FF926B01E8
:101F60007C01C114D104E104F10441F00E941C1A67
:101F7000A70196010E948A1A6B017C01C701B60174
:101F8000FF90EF90DF90CF9008950F931F93CF9322
:101F9000DF93FC01218121113AC0EB018C012091DA
:101FA000000183819481821B9109948383838C3EF9
:101FB0009F4F44F464E070E080E090E00E94AB0F3B
:101FC000F8011186F801858196810A972D813E815D
:101FD00028173907E1F4838194814897C4F481E09C
:101FE0008983CE01C29621E03985332331F04881BF
:101FF000F8013081431301C029832A968C179D076D
:1020000099F783E090E09093710180937001DF91E4
:10201000CF911F910F910895FF920F931F93CF932C
:10202000DF93EC01F62E08811981C8010E94741A11
:10203000F81621F06F2DC8010E947C1ACE01DF91A5
:10204000CF911F910F91FF900895CF92DF92EF9261
:10205000FF920F931F93CF93DF9300D0CDB7DEB7DE
:102060006C017C0103E110E01A830983F70161919F
:102070007F01CE0101960E940C100F5F1F4F0731A8
:10208000110591F7C6010F900F90DF91CF911F912D
:102090000F91FF90EF90DF90CF9008951F920F92D5
:1020A0000FB60F9211248F939F938091E10090912E
:1020B000E100937F9093E10083FF0FC01092E9004D
:1020C00091E09093EB001092EC0092E39093ED007E
:1020D0001092870198E09093F00082FF22C093E075
:1020E0009093E9009091F200992319F09AE390936C
:1020F000E80090917801992341F0909178019150F6
:1021000090937801911101C05D9A90918601992375
:1021100041F090918601915090938601911101C0F8
:10212000289A84FF18C08091E2008E7E816080939F
:10213000E2008091E1008F7E8093E100809179013F
:102140008E7E8061809379019F918F910F900FBE59
:102150000F901F90189580FFF7CF8091E2008E7E40
:1021600080618093E2008091E1008E7E8093E100A7
:10217000809179018E7E8160E5CF1F920F920FB61C
:102180000F921124CF92DF92EF92FF920F931F9341
:102190002F933F934F935F936F937F938F939F936F
:1021A000AF93BF93EF93FF93CF93DF93CDB7DEB79A
:1021B0006C97DEBFCDBF1092E9008091E80083FFED
:1021C00025C068E0CE0145960E94A60982EF809363
:1021D000E8008D8987FF39C09091E80090FFFCCF1F
:1021E000982F907609F034C19E894F89588D2F8998
:1021F000F88C911131C0803861F58091770180931E
:10220000F1001092F1008EEF8093E8006C960FB60B
:10221000F894DEBF0FBECDBFDF91CF91FF91EF915C
:10222000BF91AF919F918F917F916F915F914F91EE
:102230003F912F911F910F91FF90EF90DF90CF90E2
:102240000F900FBE0F901F9018959EEF9093E8008F
:10225000C7CF1092F100D5CF913059F48111D3CF6F
:102260004130510581F6809177018D7F8093770110
:10227000CACF933049F48111C6CF4130510519F6C8
:10228000809177018260F2CF953041F48091E8002F
:1022900080FFFCCF20682093E300B5CF963009F093
:1022A000A9C00B8D1C8D22E01092E90010927501DF
:1022B00010927401F2122EC01092730110927201EA
:1022C0000E9475091F8299E09983FA8291E09E83AA
:1022D00090EA98879AEF998720917401309175015F
:1022E000275F3F4F3C832B838D831092E900109230
:1022F000750110927401109373010093720149E00B
:1023000050E0BE016F5F7F4F80E00E944F090E9446
:10231000750979CF10937301009372010E948C08A4
:10232000DC0112960D911C910115110509F451C1A2
:10233000D801ED91FC910480F581E02DBE016B5E2A
:102340007F4FC8010995009709F03EC1F80100854B
:102350001185EACFF3E0FF120EC08F89882309F4BC
:1023600040C0823061F440E860E180ED9DE00E9471
:102370009A13811148CF81E28093EB0047CF8130DF
:1023800029F440E86BE084EC9DE0F1CF833099F7CD
:102390000E948C08DC011296ED90FC908E010F5F7C
:1023A0001F4F6801E114F10479F0D701ED91FC9120
:1023B0000680F781E02DB801C7010995080F111DAE
:1023C000F701E084F184EECFD8011C92F601019070
:1023D0000020E9F73197BF016C197D0940E0C60183
:1023E000C6CF6EEA7DE0FB01449150E080E80E9498
:1023F0004F0909CF973009F4BECF983021F481E01E
:102400008093F10000CF993009F0FDCE837009F080
:10241000B2CFECE1F1E081E031E096E321912223BB
:1024200071F08093E9003093EB00DF0111972C915C
:102430002093EC009093ED008F5F873079F78EE763
:102440008093EA001092EA008F8980938701DBCEA7
:102450008B8D9C8D1092E900109275011092740181
:102460009093730180937201898D811192C08E893E
:102470009D89913A49F4813209F07DCF47E050E0DF
:1024800065E071E080E0B3CF913209F074CF833220
:1024900069F48F89988DB0E0A0E08093010190935A
:1024A0000201A0930301B0930401ADCE803269F420
:1024B0008091E80082FFFCCF67E085E091E00E9418
:1024C000A6098BEF8093E8009ECE823209F09BCE66
:1024D0008F8980930C01EEEFFFE7859194918B3FFC
:1024E0009C4D51F1E0E0F8E08091050190910601EA
:1024F000A0910701B0910801803B9440A105B1056E
:10250000F1F480910C0180FD1AC0EE3F8AE0F807DB
:1025100089F587E797E791838083809160008093B6
:10252000760188E19BE00FB6F894A895809360004F
:102530000FBE9093600067CEEEEFFAE0D5CF8081BA
:1025400091818737974709F05ECEA895809160000A
:102550008861809360008091760180936000EE3FF7
:102560002AE0F20789F08091FE0A9091FF0A918398
:10257000808349CE808191818737980751F290936B
:10258000FF0A8093FE0AC5CF1092FF0A1092FE0A3E
:102590003ACE0E948C08DC0112960D911C91011517
:1025A000110509F4E8CED801ED91FC910190F0817C
:1025B000E02DBE016B5E7F4FC8010995811123CECE
:1025C000F80100851185EBCF181619060CF41BCE07
:1025D000D2CEF1E0FF12BECE62EB7DE004CF1F92BF
:1025E0000F920FB60F9211242F933F938F939F93C7
:1025F000AF93BF9380915F0190916001A0916101C1
:10260000B09162013091590123E0230F2D3758F525
:102610000196A11DB11D2093590180935F019093F4
:102620006001A0936101B093620180915A01909181
:102630005B01A0915C01B0915D010196A11DB11DEE
:1026400080935A0190935B01A0935C01B0935D016C
:10265000BF91AF919F918F913F912F910F900FBE9E
:102660000F901F90189526E8230F0296A11DB11D0B
:10267000D2CF1F920F920FB60F9211242F933F9338
:102680004F935F936F937F938F939F93AF93BF937A
:10269000EF93FF938091550190915601A0915701BE
:1026A000B0915801892B8A2B8B2B09F440C0809163
:1026B000540181110BC088B190E4892788B98091B9
:1026C0005301882319F088B1805888B98091550149
:1026D00090915601A0915701B09158011816190612
:1026E0001A061B069CF48091550190915601A09109
:1026F0005701B09158010197A109B1098093550183
:1027000090935601A0935701B0935801FF91EF9118
:10271000BF91AF919F918F917F916F915F914F91F9
:102720003F912F910F900FBE0F901F9018950E9410
:10273000DD0AECCFEF92FF920F931F93CF93DF93BD
:10274000F82E192FE62E042F81E0860F880F0E94A5
:10275000210983E00E942109CF2DD12FEC0EFD2EFF
:10276000F11CCE15DF05B9F007FF13C0FE018491FF
:102770000E942109182F80E00E94210981232196BF
:102780008111EFCFDF91CF911F910F91FF90EF90CB
:1027900008958881EDCF81E0F5CF0F931F93CF93FC
:1027A000DF938C0181E090E00E94A70F80FF32C090
:1027B0008AE090E00E94A70F9FEF980F9E3F50F590
:1027C00022E330E0D80150963C932E931F9728E3E4
:1027D00030E052963C932E935197CBE0D0E0D80155
:1027E000ED91FC910190F081E02D682FC8010995D1
:1027F000CE010E94A70F2196C131D10581F780E05B
:102800000E94420888EE93E0DF91CF911F910F91D3
:102810000C946D0DDF91CF911F910F910895049746
:102820000C94CD13EBEBF5E01382128288EE93E06B
:10283000A0E0B0E084839583A683B7838EE291E025
:10284000918380838FEF9FEF95878487EBE5F6E098
:10285000138212821186128680E183871086178286
:10286000158680E491E0918380838EE491E09583E6
:102870008483108A1786128A118A81E0838B148AD6
:10288000858B168A8CE197E090931A06809319063F
:1028900080E090E8909318068093170646983E9A39
:1028A00047983F9AEBE1F6E0108211821282089578
:1028B000CF93DF93CDB7DEB7CA54D1090FB6F894E2
:1028C000DEBF0FBECDBF789484B5826084BD84B571
:1028D000816084BD85B5826085BD85B5816085BD1B
:1028E00080916E00816080936E00109281008091D3
:1028F000810082608093810080918100816080935B
:10290000810080918000816080938000809191009F
:10291000826080939100809191008160809391000A
:10292000809190008160809390008091C1008460CC
:102930008093C1008091C10082608093C10080912A
:10294000C10081608093C1008091C3008160809349
:10295000C3008091C00082608093C0008091C2005B
:1029600081608093C20080917A00846080937A00B5
:1029700080917A00826080937A0080917A008160F1
:1029800080937A0080917A00806880937A00109218
:10299000870110927701109279018091D7008160B0
:1029A0008093D70080EA8093D80089B5806189BD83
:1029B00089B5826089BD09B400FEFDCF61E070E099
:1029C00080E090E00E94050A8091D8008F7C8061B1
:1029D0008093D8008091E000807F8093E000809118
:1029E000E1008E7E8093E1008DE08093E200559AB5
:1029F000209A81EC80937C0085B1806F85B984B189
:102A0000877E84B984B1876E84B95E9A5F988AB1F3
:102A1000806D8AB9769A6E9881B3806F81BB8998F0
:102A200080B38D7080BB80E58CBD81E08DBD85E07D
:102A300090E00E946D0D5F9A85E090E00E946D0D20
:102A40005E985C98ECE0F9E084918EBD00000DB4D6
:102A500007FEFDCF319629E0E931F207A9F75C9A2C
:102A600081E88093640080916500816080936500B7
:102A700080E00E9442080E94720D02E010E087FF91
:102A800015C05C9885EA8EBD00000DB407FEFDCF31
:102A90005C9A2E982F982D98809164008062809384
:102AA000640081E083BF889513BEFCCF0E94720D45
:102AB00082FF40C02D980E94720D84788438C1F442
:102AC0000E946B0D88EC90E00E946D0D2F981A8388
:102AD00009836FEFCE0101960E940C1084EF91E004
:102AE0000E946D0D2F9A0E94720D84788438D9F35C
:102AF0000E94720D84718431C1F40E946B0D88ECC8
:102B000090E00E946D0D2E981A83098360E0CE013B
:102B100001960E940C1084EF91E00E946D0D2E9A98
:102B20000E94720D84718431D9F388EC90E00E9488
:102B30006D0DBCCF0E946B0D82E090E00E94A70F4C
:102B4000882309F457C03E9A3F9A81E080935E0142
:102B500081E090E00E94A70F482F4470742E81FFFF
:102B600011C041112E9801EF1FEF88E0E82EF12CE3
:102B700098E5692E0E94720D86FF41C02E9A2F9A09
:102B80000E946B0D82E390E00E946D0D0E94720D19
:102B90008111F8CFF4E14F2E512C612C712C63E29E
:102BA000A62E6CE0B62E7AEB872E75E0972EE4E029
:102BB0002E2E312C8FB7F89440915F015091600117
:102BC00060916101709162018FBF80916706F42F5F
:102BD000F81B8F2F10916806112309F4A7C0F093FA
:102BE00069061092680680E090E0892B19F30E9434
:102BF0000000D5CF10925E013E983F98A9CF772074
:102C000029F00430110511F42E9A2F9881E00E94CA
:102C10004208980117FF04C022273327201B310BDD
:102C200027703327C80117FD0796B3E09595879560
:102C3000BA95E1F717FF05C00197F701E21BF30B07
:102C40009F01BC017695762F662777956795685723
:102C50007E4FB0E0A0E02701421A530A8E3FFFEFFB
:102C60009F0709F43FC06A9E50016B9EB00C11246F
:102C700050E040E0F501E45AF74F5F014B01F0E806
:102C80008F0E911C8F3F980791F0F501E40FF51F0F
:102C9000E4916B01C40ED51EF0E01F01022E01C0AD
:102CA000220C0A94EAF7F60134882328248A211595
:102CB000310599F0F501E40FF51FE4916401C40EAC
:102CC000D51EF0E01F01042C02C0359427940A940D
:102CD000E2F7F60134882328248A4F5F5F4F483596
:102CE000510581F6019660587F4F1197E1F480E01D
:102CF0000E9442088FE090E00E946D0D0F5F1F4F11
:102D00000931110509F036CF772011F02F9A2D984F
:102D100080E991E00E946D0D0E946B0D8BE596E0BD
:102D20000E94CD132FCFA1E0B0E098CF909166061E
:102D3000F91748F48F5F891708F055CF81E083BFFA
:102D4000889513BE50CF01E0009368064093670654
:102D5000809162069091630601969093630680933A
:102D6000620680916406809365060E94720D8093CE
:102D70006406E8E8F1E011111FEF002411931193AC
:102D8000119311930394D1F710926D0610926C0673
:102D900010926B0610926A068091700190917101F9
:102DA0008230910509F487C154F4009709F4FFC0FB
:102DB000019709F44CC180E00E94420814CF83308F
:102DC000910509F4B8C20497B1F780911B068111EF
:102DD0005BC260E071E080E090E00E94AB0F162FD4
:102DE00060E071E080E090E00E94AB0F67FF05C0FB
:102DF00080911E06082700931E0660911C06610F35
:102E0000633308F02EC260931C060BE116E037E531
:102E1000E32E36E0F32EDD24D394F8018185882358
:102E200009F451C28085811145C296819F5F9683C6
:102E30008581813418F42781291710F4F801D08690
:102E40008D5FF801858380911E06882309F427C2CF
:102E500062E070E080E090E00E94AB0FF8018481B6
:102E6000680F64830A5F1F4FE016F106B1F60E94F7
:102E7000920D0E942A070E945007E8E8F5E081853C
:102E8000882321F08081813009F470C03A968E1633
:102E90009F06A9F760916C0170916D0180916E01A0
:102EA00090916F016F5F7F4F8F4F9F4F60936C01C9
:102EB00070936D0180936E0190936F01A301920155
:102EC0000E94BC1A672B682B692B29F480910001A2
:102ED0008F5F8093000164E070E080E090E00E94EA
:102EE000AB0F162F64E070E080E090E00E94AB0F23
:102EF000F62EF9E01F9FC00111241F1509F403C22B
:102F0000EE24E394E9821A821B8220E8D22EC12C9F
:102F10003D2DDC82CD824496582F9F838E8388E19D
:102F2000888780E18987EA8601E010E020E040E0C0
:102F30006F8178E191E00E94F807EB861C861D8680
:102F40003D2DDE86CF8629E0F29EC00111244496F5
:102F5000582F998B888B8AE08A8B8B8BEC8A20E0A8
:102F600040E069897AE091E00E94F80780910001D1
:102F7000843018F083E08093000105E61DE0F8013D
:102F80006491662341F08BE596E00E94AD0D0F5FE2
:102F90001F4F892BA1F760916C0170916D01809199
:102FA0006E0190916F014AE00E94590F04CF81E1B8
:102FB00090E00E94A70F182F82E190E00E94A70FD7
:102FC000163411F4823551F181E190E029969FAFDA
:102FD0008EAF299766E4CE01895B9F4F0E940C104B
:102FE00082E190E029969FAF8EAF299762E5CE01EE
:102FF000895B9F4F0E940C102B961CAE1DAE1EAE1F
:103000001FAE2B97CE01895B9F4F0E94251081E058
:1030100090E09093710180937001CDCE83E190E0B8
:103020000E94741A8093680184E190E00E94741AEF
:103030008093690185E190E00E94741A80936A018F
:1030400086E190E00E94741A80936B01E0CF0E94A9
:10305000D10AE9E1F9E00491EAE1F9E0E4905AEFFC
:10306000C52E30E020E04BE159E070E060E08FE0F9
:1030700090E00E94820B87E390E090936B06809330
:103080006A068AE290E090936D0680936C066091E8
:1030900068017091690180916A0190916B014AE029
:1030A0000E94590F8FEF0E941F07882309F483CED7
:1030B00082E090E0AECF809171008D7F80937100AF
:1030C00000936701B0926601A0926501B09264011D
:1030D000A09263010E94DD0A0BE116E0FF24F39445
:1030E000F801F18660E470E080E090E00E94AB0FB0
:1030F000F801658362E870E080E090E00E94AB0F29
:10310000F8016483168267E070E080E090E00E943E
:10311000AB0F6D5F7F4F8F4F9F4FF80167830A5F43
:103120001F4FF6E007351F07D9F6E8E8F5E081857F
:10313000811111863A968E169F06C9F710926C017E
:1031400010926D0110926E0110926F01FF24F394A2
:10315000F09200018AE0E1E1F1E0DE015F9601908A
:103160000D928A95E1F70F8D18A129A13AA14BA1E3
:103170005CA16DA17EA18FA198A50E94F80764E0D3
:1031800070E080E090E00E94AB0F162F64E070E0EA
:1031900080E090E00E94AB0FE62E29E0129FC00174
:1031A00011241E15C9F1F9A61AA61BA640E8D42EB3
:1031B000C12C3D2DDCA6CDA64496582F9FA78EA7E7
:1031C00088E188AB80E189ABFAAA01E010E020E059
:1031D00040E06FA578E191E00E94F807FBAA1CAAE5
:1031E0001DAA3D2DDEAACFAA49E0E49EC00111240C
:1031F0004496582F99AF88AF8AE08AAF8BAFFCAE68
:1032000020E040E069AD7AE091E00E94F80730925A
:10321000710120927001CFCDFDAE1EAE1FAE20E831
:10322000322F21962FAF219722961FAE22974496D8
:10323000582F24969FAF8EAF249788E125968FAFA5
:10324000259780E126968FAF26972796FFAE279782
:1032500001E010E020E040E024966FAD249778E193
:10326000D3CF625360931C066CE870E080E090E07E
:103270000E94AB0F645C7F4F8F4F9F4F60931B0684
:1032800081E080931D06C1CD815080931B06809103
:103290001D06882309F4B9CD10921D06B6CD62E053
:1032A00070E080E090E00E94AB0FF8018481861B03
:1032B0008483D8CD848190910001891B84838111FE
:1032C000D1CD1186CFCDD18660E270E080E090E074
:1032D0000E94AB0FF80165836FE770E080E090E03B
:1032E0000E94AB0FF8016483168267E070E080E013
:1032F00090E00E94AB0F6D5F7F4F8F4F9F4FF801A3
:1033000067831086AFCD21E02D8B1E8A1F8A40E88F
:10331000342F488F198E4496582F9B8F8A8F88E1BF
:103320008C8F80E18D8F2E8F01E010E020E040E057
:103330006B8D78E118CE0E94920D0E942A070E94A0
:1033400050078FEF0E941F07882309F434CD81E0D6
:1033500090E0909371018093700180916C01909145
:103360006D01A0916E01B0916F0140916801509183
:10337000690160916A0170916B01481759076A07EA
:103380007B0708F018CD8093680190936901A093A2
:103390006A01B0936B0188E691E00E9425100BCD85
:1033A0008F929F92AF92BF92CF92DF92EF92FF9255
:1033B000CF93DF93EC01688179818A819B816115CC
:1033C00071058105910521F464E279ED8BE597E0C3
:1033D0002DE133EF41E050E00E948A1A49015A0181
:1033E0009B01AC01A7EAB1E40E94A91A6B017C0120
:1033F000ACEEB4EFA50194010E94B71AC60ED71E19
:10340000E81EF91EF7FE06C081E0C81AD108E108DF
:1034100080E8F80AC882D982EA82FB82C701B60135
:103420009F77DF91CF91FF90EF90DF90CF90BF908B
:10343000AF909F908F9008958F929F92AF92BF927E
:10344000CF92DF92EF92FF9260910D0170910E0189
:1034500080910F0190911001611571058105910511
:1034600021F464E279ED8BE597E02DE133EF41E063
:1034700050E00E948A1A49015A019B01AC01A7EA57
:10348000B1E40E94A91A6B017C01ACEEB4EFA50176
:1034900094010E94B71AC60ED71EE81EF91EF7FE49
:1034A00006C081E0C81AD108E10880E8F80AC09295
:1034B0000D01D0920E01E0920F01F0921001C701B0
:1034C000B6019F77FF90EF90DF90CF90BF90AF90C5
:1034D0009F908F90089560930D0170930E018093DB
:1034E0000F01909310010895F999FECF92BD81BD0F
:1034F000F89A992780B50895262FF999FECF1FBA1B
:1035000092BD81BD20BD0FB6F894FA9AF99A0FBE0C
:1035100001960895052E97FB1EF400940E94A11AAF
:1035200057FD07D00E94BC1A07FC03D04EF40C9440
:10353000A11A50954095309521953F4F4F4F5F4FC1
:10354000089590958095709561957F4F8F4F9F4F0F
:1035500008950E94DE1AA59F900DB49F900DA49F20
:10356000800D911D11240895B7FF0C94A91A0E9493
:10357000A91A821B930B0895A1E21A2EAA1BBB1B4A
:10358000FD010DC0AA1FBB1FEE1FFF1FA217B3072F
:10359000E407F50720F0A21BB30BE40BF50B661F45
:1035A000771F881F991F1A9469F760957095809509
:1035B00090959B01AC01BD01CF010895A29FB00180
:1035C000B39FC001A39F700D811D1124911DB29F57
:1035D000700D811D1124911D0895991B79E004C07F
:1035E000991F961708F0961B881F7A95C9F7809542
:1035F0000895EE0FFF1F0590F491E02D099481E0EE
:0C36000090E0F8940C94041BF894FFCFA9
:10360C0001FFFFFFFF00E1000000000000010000CF
:10361C00000000000A000A0018110100C18081009E
:10362C000000CF0EB50E190FC50F00000000A0084A
:10363C00380AC108B6080709C508E30800000000ED
:10364C00AD0DB309B20EB10ECD13FCFF00000F147B
:00000001FF
